:10000000004000202913000071130000731300004A
:1000100000000000000000000000000000000000E0
:100020000000000000000000000000007513000048
:1000300000000000000000007713000079130000AA
:100040007B1300007B1300007B1300007B13000078
:100050007B13000000000000F10600007B1300008D
:100060007B1300007B1300007B1300007B13000058
:100070007B1300007B1300007B1300007B13000048
:100080007B1300007B1300007B1300007B13000038
:100090007B1300007B1300007B1300007B13000028
:1000A0007B1300007B130000000000000000000034
:1000B0000000000000000000000000000000000040
:1000C00010B5064C2378002B07D1054B002B02D02E
:1000D000044800E000BF0123237010BD4C04002041
:1000E00000000000CC16000008B5084B002B03D020
:1000F0000748084900E000BF07480368002B00D10B
:1001000008BD064B002BFBD09847F9E70000000024
:10011000CC1600005004002048040020000000001D
:10012000164B002B00D1144B9D46402292029A1A86
:10013000924600218B460F461348144A121A01F0CA
:1001400051F90F4B002B00D098470E4B002B00D0DD
:1001500098470020002104000D000D48002802D01F
:100160000C4801F015FA01F019F92000290000F0FF
:1001700003FB01F003F9C046000008000040002026
:1001800000000000000000004C0400206C0400206F
:1001900091150000A115000080B582B000AF021CCF
:1001A000FB1D1A70064BFA1D1278111C1F220A4003
:1001B000012191400A1C1A60BD4602B080BDC046B4
:1001C00000E100E080B582B000AF7860A023DB05DD
:1001D0007A68C132FF3292000321D150BD4602B08D
:1001E00080BDC04680B582B000AF78600A1CFB1CA1
:1001F0001A70A023DB05FA1C12789200111C7A6891
:10020000C132FF329200D150BD4602B080BDC0461F
:1002100080B582B000AF7860A023DA057B68012149
:100220009940A123DB00D150BD4602B080BDC0463D
:1002300080B582B000AF7860A023DB057A68012129
:1002400091400A1C02495A50BD4602B080BDC046CA
:100250000C05000080B582B000AF7860A023DA05FD
:10026000A223DB00D2587B68DA40131C0122134022
:10027000181CBD4602B080BD80B582B000AF021C24
:10028000FB1D1A70FB1D1B782A33DBB27E20191C64
:10029000012200F08FFFFB1D1B780533DBB27E20AF
:1002A000191C202200F086FF7E202521002200F06C
:1002B00081FFBD4602B080BD80B582B000AF021C98
:1002C000FB1D1A70FB1D1B782A33DBB27E20191C24
:1002D000002200F06FFF7E202521002200F06AFF3F
:1002E000BD4602B080BDC04690B583B000AFBB1C18
:1002F00000221A7000237B6007E07B68DBB2181CC9
:10030000FFF7DAFF7B6801337B607B680F2BF4DD3E
:100310001A20FFF7D1FF1B20FFF7CEFFFA2000F0D5
:100320000FFBFC1CBB1C502000211A1C00F0FCFE23
:10033000031C2370FB1C1B78002B0ED00020FFF742
:100340009BFF0120FFF798FF0220FFF795FF032096
:10035000FFF792FF6E2000F097FBFA2000F0F0FA12
:10036000FC1C7E200021012200F024FF031C2370CE
:10037000FB1C1B78002B0ED00420FFF77DFF05200F
:10038000FFF77AFF0620FFF777FF0720FFF774FFDC
:10039000732000F079FBFA2000F0D2FAFC1CBB1CA1
:1003A000902001211A1C00F0BFFE031C2370BB1C0F
:1003B0001B781A1C042313400AD12C4B1B78002BEA
:1003C00006D00E20FFF7FEFE0E20FFF731FFFEE7FE
:1003D000FB1C1B78002B0ED00820FFF74DFF0920D7
:1003E000FFF74AFF0A20FFF747FF0B20FFF744FF04
:1003F000702000F049FBFA2000F0A2FAFC1CBB1CA4
:10040000D4200F211A1C00F08FFE031C2370FB1C4C
:100410001B78002B0ED00C20FFF72EFF0D20FFF7CE
:100420002BFF0E20FFF728FF0F20FFF725FF672087
:1004300000F02AFB0A2000F027FB0D4B1B78002B55
:1004400006D01B20FFF718FF094B00221A7005E0A9
:100450001A20FFF711FF064B01221A70FA235B00E6
:10046000181C00F06DFABD4603B090BD6804002072
:100470000400002080B582B000AF7E204A21002217
:1004800000F098FE00237B602EE07B68DBB22A330D
:10049000DBB27E20191C012200F08CFE7B681A2B37
:1004A00009D17B68DBB20533DBB27E20191CE02268
:1004B00000F080FE15E07B681B2B09D17B68DBB266
:1004C0000533DBB27E20191C042200F073FE08E025
:1004D0007B68DBB20533DBB27E20191C202200F0E2
:1004E00069FE7B6801337B607B681B2BCDDD7E2042
:1004F0002521002200F05EFEBD4602B080BDC04650
:1005000080B500AF7E204A21012200F053FEBD4697
:1005100080BDC04680B500AF1420FFF753FE142005
:10052000FFF776FEFA2000F00BFA1E20FFF74AFED6
:100530001E20FFF76DFEBD4680BDC04680B500AFF2
:100540001E20FFF73FFE1E20FFF772FE1420FFF76C
:1005500039FE1420FFF76CFEBD4680BD80B582B029
:1005600000AFFB1D902002211A1C00F0DDFDFB1DD9
:100570001B78DBB21A1C31239A43131CDBB21A1C02
:1005800021231343DBB2DBB2902002211A1C00F0BE
:1005900011FEBD4602B080BD80B582B000AFFB1D2C
:1005A000902002211A1C00F0BFFDFB1D1B78DBB25E
:1005B0001A1C31239A43131CDBB21A1C3023134339
:1005C000DBB2DBB2902002211A1C00F0F3FDBD4625
:1005D00002B080BD80B500AF094A0A4B0121D1505D
:1005E0000749094AC0235B028B50054AA123DB005F
:1005F0000121D150024B01221A60BD4680BDC04688
:10060000000001400C0500000405000080B584B026
:1006100000AF78600A1CFB1C1A700F23FB18FA1C31
:10062000127812091A700F23FB181B78092B07D8B0
:100630000F23FB181B783033DAB27B681A7006E0A0
:100640000F23FB181B783733DAB27B681A700E233E
:10065000FB18FA1C12780F210A401A700E23FB189F
:100660001B78092B08D87B6801330E22BA18127840
:100670003032D2B21A7007E07B6801330E22BA180A
:1006800012783732D2B21A707B68023300221A70A5
:10069000BD4604B080BDC04680B500AF0E2000212D
:1006A000FFF7A0FD16200021FFF79CFD1720002179
:1006B000FFF798FD0D200021FFF794FD1920FFF7AB
:1006C00081FD1920FFF7A4FD0620FFF765FD064A0E
:1006D000A223DB000549D150034AC1239B0001211D
:1006E000D150BD4680BDC04600600040010D0100F4
:1006F00080B582B000AF1F4A80235B00D358012B26
:100700000BD11C4AC1239B00D3580122134004D0B3
:10071000184A80235B000021D150FB1D00221A7073
:100720002B2000F0B1F90CE0642000F009F9FB1D6A
:100730001A78FB1D01321A70FB1D1B78092B00D99A
:1007400005E00D20FFF786FD031E012BECD02D20C8
:1007500000F09AF9FB1D1B78092B08D90E20FFF732
:1007600031FD0E20FFF764FDFFF7E8FEFEE7BD4612
:1007700002B080BD0060004090B585B002AF00239C
:100780000093042003210522022300F0C3F900F0A6
:10079000C5FCFC1DBB1D902001211A1C00F0C4FCEF
:1007A000031C2370FB1D1B78002B08D0BB1D1B787E
:1007B0001A1C0423134002D0534B01221A707E20CE
:1007C0004F21002200F0F6FC7E200021012200F0E3
:1007D000F1FCFA2000F0B4F8FFF75EFFFFF79AFE95
:1007E0000A2000F051F9492000F04EF9442000F0B1
:1007F0004BF93A2000F048F980235B05A8229B586A
:100800001B0ADBB2402252421343DBB23A1C101CDB
:10081000191CFFF7FBFE3B1C181C00F053F980234A
:100820005B05A8229B58DBB23A1C101C191CFFF771
:10083000EDFE3B1C181C00F045F980235B05A4224B
:100840009B581B0EDBB23A1C101C191CFFF7DEFE76
:100850003B1C181C00F036F980235B05A4229B5832
:100860001B0CDBB23A1C101C191CFFF7CFFE3B1C03
:10087000181C00F027F980235B05A4229B581B0A53
:10088000DBB23A1C101C191CFFF7C0FE3B1C181CE5
:1008900000F018F980235B05A4229B58DBB23A1CB8
:1008A000101C191CFFF7B2FE3B1C181C00F00AF9C3
:1008B0000A2000F0E9F8BB1D902001211A1C00F06D
:1008C00033FCBB1D1B78181C00F0DEF8BB1D90200C
:1008D00002211A1C00F028FCBB1D1B78181C00F01C
:1008E000D3F8FFF73BFEFFF7C5FD1920FFF7A0FC8B
:1008F0000A2000F025F81920FFF78AFC0A2000F0F2
:100900001FF8FFF7F1FCF0E76804002080B582B023
:1009100000AF7860C046C046C046C046C046C0462C
:10092000C046C046C046C046C046C046C046C04697
:100930007B68013B7B60002BECD1BD4602B080BDE3
:1009400080B582B000AF786006E07B68013B7B60D9
:10095000044B181CFFF7DAFF7B68002BF5D1BD466E
:1009600002B080BDE703000080B582B000AF7860C0
:10097000C046C046C046C046C046C046C046C04647
:10098000C046C046C046C046C046C0467B68013B24
:100990007B60002BECD1BD4602B080BD80B582B03B
:1009A00000AF7860A023DB057A68C132FF32920085
:1009B0000321D150BD4602B080BDC04680B582B093
:1009C00000AF78600A1CFB1C1A70A023DB05FA1C20
:1009D00012789200111C7A68C132FF329200D15015
:1009E000BD4602B080BDC04680B500AFC046094AD2
:1009F00084235B00D358012BF9D1064A84235B0082
:100A00000021D150034AA323DB00D358DBB2181CCA
:100A1000BD4680BD0020004080B584B000AF786046
:100A200039600F23FB1801221A700FE07B685A1EF1
:100A30007A60002B05DBFA239B00181CFFF794FF5C
:100A400004E00F23FB1800221A7005E00D4A8423EE
:100A50005B00D358012BE9D17B68002B0BDB094AE3
:100A600084235B000021D150064AA323DB00D35826
:100A7000DAB23B681A700F23FB181B78181CBD46AE
:100A800004B080BD0020004080B582B000AF021CE1
:100A9000FB1D1A700949FB1D1B78094A8B50C04683
:100AA000064A8E235B00D358012BF9D1034A8E23CB
:100AB0005B000021D150BD4602B080BD0020004047
:100AC0001C05000080B584B000AF78600023FB6097
:100AD000FB685A1CFA607A68D2180B23FB1812784C
:100AE0001A700EE00B23FB181B78181CFFF7CCFFC5
:100AF000FB685A1CFA607A68D2180B23FB1812782C
:100B00001A700B23FB181B78002BEBD1BD4604B0E9
:100B100080BDC046B0B582B000AF051C0C1C101CD7
:100B2000191CFB1D2A1C1A70BB1D221C1A707B1D70
:100B3000021C1A703B1D0A1C1A70BB1D1B78181C66
:100B4000FFF72CFF3B1D1B78181C0021FFF736FF19
:100B50002049BB1D1B78204A8B501E493B1D1B782A
:100B60001E4A8B501823FB181B78002B1AD0FB1D34
:100B70001B78181CFFF712FF7B1D1B78181C002127
:100B8000FFF71CFF13497B1D1A78A223DB00CA5014
:100B90001049FB1D1A78A123DB00CA500D4A104BE7
:100BA0000121D1500B4A0F4B0F49D150094AA023C4
:100BB000DB000421D150074B01229A60054B012232
:100BC0001A60044A84235B000021D150BD4602B064
:100BD000B0BDC046002000400C0500001405000018
:100BE0006C0500002405000000509D0080B582B017
:100BF00000AF7860C046C046C046C046C046C0464A
:100C0000C046C046C046C046C046C046C046C046B4
:100C10007B68013B7B60002BECD1BD4602B080BD00
:100C200080B584B000AF7860081C111CFB1C021C4E
:100C30001A70BB1C0A1C1A703E4BFB60FB1C1B7815
:100C4000002B01D1002371E03B497B685A1C7A607C
:100C50001B781A1C394BCA50374B01229A60C04688
:100C6000354A8E235B00D358002B0BD1324A922396
:100C70005B00D358002B05D1FB68013BFB60FB6890
:100C8000002BEDD1FB68002B05D02B4A92235B0093
:100C9000D358002B1DD0284A92235B000021D1504D
:100CA000254AA023DB000021D150234A244B0021F8
:100CB000D1500520FFF79AFF1F4A214B0121D15047
:100CC0001D4AA023DB000521D15000F087F9002345
:100CD0002CE0194A8E235B000021D150FB1CFA1C2A
:100CE0001278013A1A70FB1C1B78002B05D1C04604
:100CF000BB1C1B78002B18D008E00F497B685A1CDE
:100D00007A601B781A1C0D4BCA50A8E70A4A822346
:100D10005B000021D150084B01225A61C046064AAF
:100D200082235B00D358002BF9D00123181CBD4649
:100D300004B080BD204E0000004000401C050000B3
:100D4000FC0F000080B584B000AF7860081C111C57
:100D5000FB1C021C1A70BB1C0A1C1A704B4BFB605C
:100D6000FB1C1B78002B01D100238BE0FB1C1B78A4
:100D7000012B04D1464A474B4749D15003E0444A2E
:100D8000444B4649D150424A454B0121D150454A36
:100D900084235B000021D150424B01221A60C046DF
:100DA000404A84235B00D358002B0BD13D4A922349
:100DB0005B00D358002B05D1FB68013BFB60FB684F
:100DC000002BEDD1374A84235B000021D150FB6812
:100DD000002B05D0334A92235B00D358002B1DD043
:100DE000304A92235B000021D1502E4AA023DB0021
:100DF0000021D1502B4A2C4B0021D1500520FFF768
:100E0000F5FE284A284B0121D150264AA023DB00B9
:100E10000521D15000F0E2F8002333E07B685A1C32
:100E20007A602049A322D2008A58D2B21A70FB1CE1
:100E3000FA1C1278013A1A70FB1C1B78012B03D1A3
:100E4000134A144B1449D150FB1C1B78002B01D1C1
:100E5000C04606E01420FFF7C9FE124B01221A62B9
:100E60009DE7104A82235B00D358002BF9D00D4A2E
:100E700082235B000021D150054AA123DB00012120
:100E8000D1500123181CBD4604B080BD204E000087
:100E900000F0014014050000144000401C400040D8
:100EA0000405000000400040FC0F000080B586B043
:100EB00000AF464AA023DB00D358FB60434AA0237F
:100EC000DB000021D150A023DB05414A9B58BB60C9
:100ED000A023DB053E4A3F499950A023DA05EE23C3
:100EE000DB00D3587B60A023DA05EE23DB00394911
:100EF000D150A023DA05A123DB0080214905D15080
:100F0000A023DA05A123DB0080218905D15004202C
:100F1000FFF76CFEA023DA05A223DB00D3581B0FDA
:100F2000012213400DD0A023DA05A223DB00D35801
:100F30005B0F0122134004D01723FB1801221A7003
:100F40002CE01723FB1800221A7012233B6120E0CB
:100F5000A023DB052049802292055A500420FFF788
:100F600045FEA023DA05A123DB0080218905D150AD
:100F70000420FFF73BFEA023DA05A223DB00D358B1
:100F80001B0F0122134004D01723FB1801221A70F3
:100F900004E03B695A1E3A61002BD9D1A023DB053E
:100FA0000B49BA685A50A023DA05EE23DB007968B2
:100FB000D1500649A023DB00FA68CA501723FB185A
:100FC0001B78181CBD4606B080BDC04600400040DE
:100FD000740700000D0600000C05000080B500AF8E
:100FE000A023DB051C4A1D499950A023DA05EE23F6
:100FF000DB001A49D1501A4A84235B000021D150EA
:10100000174A8E235B000021D150154AA123DB0033
:101010001D21D150124A134B1C21D1501049124AA4
:10102000CC235B048B50114AA223DB001049D15022
:101030000E4A104B1049D1500C4AA123DB0001216C
:10104000D150074AA023DB000521D150FFF72EFF26
:10105000031C181CBD4680BD740700000C06000070
:10106000004000400C0500002405000000F0014095
:1010700038410040140500001C40004090B585B088
:1010800000AF041C3960101C191CFB1D221C1A70B7
:10109000BB1D021C1A707B1D0A1C1A700F23FB1843
:1010A00000221A70BB1D1B78002B2ED0FFF7FEFE0E
:1010B000031E2AD0184AFB1D1B785B08DBB2191CE3
:1010C000B123DB00D150FB1D1B78012213400ED051
:1010D0000F23FC183968BB1D1A787B1D1B78081C70
:1010E000111C1A1CFFF72EFE031C23700DE00F23AA
:1010F000FC183968BB1D1A787B1D1B78081C111C55
:101100001A1CFFF78DFD031C23700F23FB181B789F
:10111000181CBD4605B090BD0040004080B500AF32
:10112000FFF75CFFBD4680BD80B584B000AF3A607C
:10113000FB1D021C1A70BB1D0A1C1A700F23FB1822
:1011400001221A70FB1D1A78BB1D101C191C0122EC
:101150000023FFF793FF031C1A1C0F23FB181B78B7
:101160001A400F23FB18511E8A411A700F23FB18D7
:101170001B78002B16D0FB1D1B7801221343DAB21B
:101180003B68101C191C01220123FFF777FF031C89
:101190001A1C0F23FB181B781A400F23FB18511E33
:1011A0008A411A700F23FB181B78181CBD4604B027
:1011B00080BDC04690B585B000AF041C081C111C52
:1011C000FB1D221C1A70BB1D021C1A707B1D0A1C01
:1011D0001A700C23FB18BA1D12781A700C23FB1816
:1011E0007A1D12785A70FB1D1A780C23FB18101CFC
:1011F000191C02220123FFF741FF031C181CBD46E6
:1012000005B090BD80B500AF024B034A1A60BD46E1
:1012100080BDC046080000200024F40080B500AF67
:1012200000F01CF8031E06D0094B0A4A1A600A4B4C
:10123000802212021A6000F051F8031E05D08023AC
:10124000DA05C123DB000121D150BD4680BDC04677
:1012500004050040DFFF07C0186C004080B500AFF8
:101260001A4B1B68FF221340012B2AD1184B1B6815
:101270000F22134025D1174B1B68F022134006D1D3
:10128000154B1B68F022134001D101231AE0114BCA
:101290001B68F0221340102B06D10F4B1B68F02265
:1012A000134001D101230DE00A4B1B68F0221340CB
:1012B000302B06D1084B1B68F022134001D10123CB
:1012C00000E00023181CBD4680BDC046E00F00F0C2
:1012D000E40F00F0E80F00F0EC0F00F080B500AF75
:1012E0000D4B1B68FF221340012B11D10B4B1B68C8
:1012F0000F2213400CD10A4B1B68F0221340402BE5
:1013000006D1084B1B68F022134001D1012300E0F5
:101310000023181CBD4680BDE00F00F0E40F00F074
:10132000E80F00F0EC0F00F003210A4802680A43BE
:101330000260094802680A4302600849084A094BEA
:101340009B1A03DD043BC858D050FBDC064880479D
:10135000064800472405004054050040D816000008
:10136000000000204C0400201D120000210100009C
:10137000FEE7FEE7FEE7FEE7FEE7FEE710B5002129
:10138000041C00F081F8044B1868C36B002B00D0DC
:101390009847201C00F088F9C816000070B50D4E63
:1013A0000D4D0024AD1BAD1005D0A300F358013442
:1013B0009847A542F9D100F079F9084E084D00246C
:1013C000AD1BAD1005D0A300F35801349847A542DA
:1013D000F9D170BD3C0400203C0400203C040020F6
:1013E0004404002070B583073FD0541E002A3BD030
:1013F000CEB2031C032503E0621E002C34D0141C63
:1014000001335A1E16702B42F6D1032C24D9FF2526
:101410000D402A0215432A0415430F2C11D9261C0E
:10142000103E3609013636011A1C9B1915605560AD
:101430009560D56010329342F8D10F221440032CEE
:101440000AD9261FB6080136B6001A1C9B1920C2FD
:101450009342FCD103221440002C05D0C9B21C19C0
:1014600019700133A342FBD170BD141C031CCCE7DF
:1014700008B5034B002B02D0024800F089F808BDE4
:1014800000000000A1150000F0B556465F464D462D
:101490004446F0B40E1C3C4B87B01B68019003938C
:1014A0004933FF330493A422039B52009F58002F1B
:1014B0004CD0049B984600239B46C4235B009C466B
:1014C000BC4463460293C6235B009A467C68BA44D8
:1014D000A5007D19013C08D526E06B1DFF331B6874
:1014E000B34204D0043D013C1ED3002EF5D17B68ED
:1014F0006A68013BA3423AD05B466B60002AF1D098
:101500007B68029999460123A34009680591194215
:1015100023D190477B684B45C5D143461B68BB42EE
:10152000C1D1043D013CE0D2184B002B0ED07B68AA
:10153000002B23D13B68002B24D04246381C13607B
:1015400000E000BF43461F68002FB6D107B03CBC87
:1015500090469946A246AB46F0BD514609681942ED
:1015600007D12B1C8433196801989047D2E77C601F
:10157000C4E72B1C843318689047CBE73B68B84618
:101580001F1CE1E70023FAE7C81600000000000076
:1015900008B5011C00220020002300F01BF808BD44
:1015A00038B5094B094CE41AA41009D0084AA5180B
:1015B000AD00ED182B68013C9847043D002CF9D193
:1015C00000F07AF838BDC0464404002048040020EA
:1015D000FFFFFF3FF8B544465F4656464D469B46E3
:1015E0002F4BF0B41C68A4235B00051CE0580E1CB4
:1015F000904600284BD043681F2B0DDC5C1C002D4F
:1016000021D102339B0044601E5000203CBC904618
:101610009946A246AB46F8BD224B002B3CD0C820D1
:10162000400000E000BF002836D0A4220023520072
:10163000A15843600160A05040328350043283506F
:101640000124002DDDD09A00914681444246882134
:101650004F467A50C4225200904680444246873911
:10166000994012688A460A43944642466146116090
:10167000842249465F4652008F50022DC1D1021C80
:1016800055468D32FF3211680D431560B9E7201CB5
:101690004D30FF30E050AEE701204042B6E7C04693
:1016A000C816000000000000FEE7C046F8B5C046BE
:1016B000F8BC08BC9E467047F8B5C046F8BC08BCEC
:1016C0009E4670474300000010000020000000000C
:0816D00050EAFF7F0100000059
:1016D80000000000010000000024F40000000000E9
:1016E80000000000FC02002064030020CC0300205E
:1016F80000000000000000000000000000000000E2
:1017080000000000000000000000000000000000D1
:1017180000000000C41600000000000000000000E7
:1017280000000000000000000000000000000000B1
:1017380000000000000000000000000000000000A1
:101748000000000000000000000000000000000091
:101758000000000000000000000000000000000081
:101768000000000000000000000000000000000071
:101778000000000000000000000000000000000061
:101788000000000000000000010000000000000050
:101798000E33CDAB34126DE6ECDE05000B00000015
:1017A8000000000000000000000000000000000031
:1017B8000000000000000000000000000000000021
:1017C8000000000000000000000000000000000011
:1017D8000000000000000000000000000000000001
:101B08000000000000000000100000207114000018
:0C1B1800E9000000C10000000000000017
:0400000300001329BD
:00000001FF
