:020000040000FA
:10000000C0070000D1060000D1000000B1060000CA
:1000100000000000000000000000000000000000E0
:100020000000000000000000000000005107000078
:100030000000000000000000DB000000E500000000
:10004000EF000000F9000000030100000D010000B6
:1000500017010000210100002B0100003501000004
:100060003F01000049010000530100005D01000054
:1000700067010000710100007B01000085010000A4
:100080008F01000099010000A3010000AD010000F4
:10009000B7010000C1010000CB010000D501000044
:1000A000DF010000E9010000F3010000FD01000094
:1000B00007020000110200001B02000025020000E0
:1000C0001FB5C046C04600F0EFFA04B00FB41FBD24
:1000D00008205A49096809580847382057490968CB
:1000E000095808473C2055490968095808474020E5
:1000F0005249096809580847442050490968095875
:10010000084748204D490968095808474C204B4981
:10011000096809580847502048490968095808479C
:100120005420464909680958084758204349096836
:10013000095808475C204149096809580847602068
:100140003E4909680958084764203C49096809582C
:100150000847682039490968095808476C20374919
:100160000968095808477020344909680958084740
:100170007420324909680958084778202F490968CE
:10018000095808477C202D490968095808478020EC
:100190002A490968095808478420284909680958E4
:1001A0000847882025490968095808478C202349B1
:1001B00009680958084790202049096809580847E4
:1001C00094201E4909680958084798201B49096866
:1001D000095808479C201949096809580847A02070
:1001E0001649096809580847A4201449096809589C
:1001F0000847A8201149096809580847AC200F4949
:10020000096809580847B0200C4909680958084787
:10021000B4200A49096809580847B82007490968FD
:1002200009580847BC2005490968095808470000D3
:1002300003480449024A034B7047000000000020B5
:10024000C0070000C00700000122D84B5A6000BF61
:10025000D74A1268002AFBD0016000BFD44A126856
:10026000002AFBD00022D14B5A6000BFD04A12684E
:10027000002AFBD07047F0B505460E46174600240D
:1002800006E0A200B158A2005019FFF7DDFF641C80
:10029000BC42F6D30020F0BD0120C043C549086030
:1002A000401048607047014601229204086890425D
:1002B00001D9102070470020FCE7F0B505460C4638
:1002C0001646002706E028462168FFF7BDFF2D1DD2
:1002D000241D7F1CB742F6D3F0BD70B505460C4611
:1002E0002E460BE0304600F075F9FF2C01D80024B3
:1002F00001E0FF3C013C012080023618002CF1D1C6
:1003000070BD0146012292044868904201D909203B
:100310007047A9484069401C01D10F20F8E7002030
:10032000F6E7FEB504462068030000F037FA05043E
:100330002B4249598B00201DFFF7E3FF0546002D96
:1003400001D02846FEBDFFF7A7FF0120C00200F044
:1003500041F9042221469948FFF78DFF002801D07A
:100360000320EFE708222146944800F06DF90028A9
:1003700006D1002192480068FFF766FF00F00CF9F3
:100380000320DFE7A768E6686068019031463846D9
:10039000FFF7A3FF324638460199FFF78EFFB20000
:1003A0003846019900F050F9002800D1CAE703202F
:1003B000C8E700F0E3F9834800688349086041E03A
:1003C00060680190E668A0680090B200009901980A
:1003D00000F03AF90746002F00D1B3E70E20B1E74D
:1003E000201DFFF760FF0546002D01D02846A9E734
:1003F0006068002807D1FFF74FFF0320800200F05C
:10040000E9F800F0C9F8FFF747FF0120C00200F04B
:10041000E1F8042221466948FFF72DFF002801D0AA
:1004200003208FE708222146644800F00DF90028D8
:1004300006D1002162480068FFF706FF00F0ACF823
:1004400003207FE700BF00207CE770B505460C461F
:10045000182D04D12068FFF764FF206002E001201E
:10046000206000BF00BF70BDF0B589B05248406940
:1004700003905248806881000398081802900398FE
:10048000000B01900121090302984018401E000B47
:1004900000900124002520462946019A00F0C4F866
:1004A0000022401E91410791069001260027304608
:1004B0003946009A00F0B8F80022401E914105919B
:1004C0000490049BDB43059AD2430698184307998E
:1004D00011430791069037490698086007984860CD
:1004E00009B0F0BD70B53448446934488568466841
:1004F000AA003146204600F0A7F8002801D00020CD
:1005000070BD0120FCE72D484068002801D0012083
:1005100000E000200546FFF7E5FF002807D0FFF7C1
:10052000BBFE0320800200F055F800F035F8FFF71D
:100530009BFF002D0ED020484669204884684768FC
:1005400021463046FFF7C9FE224639463046FFF7BE
:10055000B4FE00BF00F020F810B5184844681A48EF
:100560000460204600F0DCF810BD15480068006803
:10057000401C01D100BFFEE710480068002802D0EF
:10058000042806D101E0FFF7BEFFFFF7E5FF00BF3B
:10059000FEE700BF00BFFEE7BFF34F8F0B480C49DB
:1005A000C860BFF34F8F00BFFEE7000000E50140C9
:1005B00000E40140000600400010001000080000A8
:1005C000B8070000BC070000000000200400FA0586
:1005D00000ED00E010B50146104B1A6808460223F2
:1005E0000F4C636000BF0F4B1B68002BFBD0531CEC
:1005F00004D0904202D20A4B186101E0084B986087
:1006000000BF084B1B68002BFBD00023044C636029
:1006100000BF044B1B68002BFBD010BD0010001066
:1006200000E5014000E4014010B5202A04DB01464A
:10063000203A9140002010BD914020239C1A03468F
:10064000E3401943904010BD034610B50B439B0790
:100650000FD1042A0DD308C810C9121FA342F8D025
:1006600018BA21BA884201D9012010BD0020C04328
:1006700010BD002A03D0D30703D0521C07E000208E
:1006800010BD03780C78401C491C1B1B07D1037854
:100690000C78401C491C1B1B01D1921EF1D118463D
:1006A00010BD70477047704710B500F007F810BDD7
:1006B000014B1B68DB6818470000002019481A49E5
:1006C0007047FFF7FBFFFFF7FBFC00BD20BFFDE716
:1006D0001649174C24688C420BD1164B1B68994263
:1006E0000CD1154B154A1360186810498842EDD09B
:1006F0000AE0134880F30888124B18470F4A13602A
:1007000018680A498842E1D080F308880E49884277
:1007100004DD0E48026802210A4302605B68184744
:100720000346DFE7C0070000C0070000FFFFFFFF30
:10073000000C000014100010001000000000002049
:10074000000400206B05000000200020240500406C
:100750000D48704502D1EFF3098101E0EFF3088104
:10076000886902380078182802D1C046074A104725
:10077000074A12682C3212681047000000B5054B7A
:10078000054A9B58984700BDFDFFFFFF4B04000042
:1007900000000020001000000400000030B4744687
:1007A000641E2578641CAB4204D3635D5B00E318D0
:1007B00030BC18471D46F8E7000C00000010000090
:10100000881D0020E14F0100993D0000474F01007D
:1010100000000000000000000000000000000000D0
:10102000000000000000000000000000515001001E
:101030000000000000000000993D0000993D000004
:10104000BD500100C3500100993D0000993D0000D2
:10105000993D0000993D0000993D0000993D000038
:10106000C9500100993D0000993D0000CF5001009A
:10107000993D0000D5500100DB500100E150010016
:10108000993D0000993D0000993D0000993D000008
:10109000993D0000993D0000993D0000993D0000F8
:1010A000E7500100ED500100993D0000993D00001E
:1010B000993D0000993D0000993D0000993D0000D8
:1010C00000F002F813F06DFF0CA030C808382418A7
:1010D0002D18A246671EAB4654465D46AC4201D170
:1010E00013F05FFF7E460F3E0FCCB646012633421B
:1010F00000D0FB1AA246AB4633431847AC40010070
:10110000DC400100103A02D378C878C1FAD85207FF
:1011100001D330C830C101D504680C6070470000AD
:101120000023002400250026103A01D378C1FBD803
:10113000520700D330C100D50B6070471FB5C046C1
:10114000C04613F0CFFE04B00FB41FBD8269024940
:1011500081610248104470476111000001000000E5
:1011600001B41EB400B510F0E7FB01B40198864647
:1011700001BC01B01EBD0000F0B4404649465246D5
:101180005B460FB402A0013001B50648004700BF1E
:1011900001BC86460FBC8046894692469B46F0BC01
:1011A00070470000C1100000401E00BF00BF00BF1C
:1011B00000BF00BF00BF00BF00BF00BF00BF00BF37
:1011C00000BFF1D17047000070B505460C461646C9
:1011D00002E00FCC0FC5103E102EFAD2082E02D31B
:1011E00003CC03C5083E042E07D301CC01C5361F2E
:1011F00003E021782970641C6D1C761EF9D270BD45
:101200008307FF22DB0E9A408907090E99400028C8
:101210000BDA0007000F0838830828489B001B18CA
:10122000D86990430843D8617047830824489B00DD
:101230001B181868904308431860704710B504469F
:1012400000210120FFF7DCFF00211820FFF7D8FF65
:1012500000210B20FFF7D4FF02211920FFF7D0FF58
:1012600002210D20FFF7CCFF02210E20FFF7C8FF5F
:1012700002210F20FFF7C4FF0221C81FFFF7C0FFA4
:1012800003211620FFF7BCFF03211520FFF7B8FF4D
:10129000204600F019F8002010BD5A210180704747
:1012A00010B500F03AF810BD0648704710B500F0D0
:1012B00035F810BD704770477047000000ED00E042
:1012C00000E400E003F900C330B50446374D95B0A3
:1012D00007202870A81CFFF7E0FF5920A880344899
:1012E00001F01CFC0546072000F0DCF929462F48D8
:1012F00000F08CFA641E072C0AD830216846017071
:10130000847001F0E0FA002802D009A800F0DDFCAA
:10131000284601F083FE15B030BD7047F8B5234E66
:101320000446B61E307801270D46002807D0204617
:1013300060380B2808D8204601F09AFB2BE0602C7F
:10134000F9D01C480860F8BD20466C38032803D843
:10135000204601F0CFFB1EE0204670381F2803D83E
:10136000204600F037F816E0204690380F2803D8C2
:10137000204600F0BBF80EE02046A0380F2803D826
:10138000204600F023F906E02046B0380F2804D8A4
:10139000204600F000F9286000E02F60602CD2D1D8
:1013A00028680028CFD13770F8BD00001A0000204F
:1013B000C533000001300000704770477047704728
:1013C000704770477047704710B5012801D100F091
:1013D00042FA10BD10B57038030013F09FFE150CD3
:1013E00012161E22252C33383D41454950555C6468
:1013F0006C747B8085004A680878114603F093FF7F
:1014000010BD086803F0F7FF10BD0C790B7B8A68EC
:101410000868214603F0FFFF10BD086804F075F866
:1014200010BD03F03DFC10BD08884A6880B211462B
:1014300004F03AFA10BD0A790888114680B204F027
:1014400086FA10BD087840B204F091FA10BD088801
:1014500080B204F0ADFA10BD086804F0BCFA10BD0B
:10146000086804F0CFFA10BD086804F0F8FA10BD5F
:10147000088982B209C9194604F020FB10BD05C9CC
:10148000114604F074FB10BD08884A6880B211460A
:1014900004F08DFB10BD0B7908888A6880B219466C
:1014A00004F0E1FB10BD0B7908888A6880B2194608
:1014B00004F09AFC10BD08884B688A6880B219460F
:1014C00004F0D8FC10BD08884A6880B2114604F0C8
:1014D00023FD10BD088880B204F042FD10BD0888CD
:1014E00080B204F062FD10BD012010BD10B590382F
:1014F000030013F013FE09060F161D242C363F4679
:101500004E0088888A6883B20888194680B205F040
:101510007DF910BD08884A6880B2114605F0D3F9FC
:1015200010BD08884A6880B2114605F017FA10BD50
:1015300008884A6880B2114605F04DFA10BD088847
:101540004B688A6880B2194605F07EFA10BD08899A
:1015500082B2888883B20888194680B205F0B3FA4F
:1015600010BD08894B6882B20888194680B205F020
:10157000E8FA10BD08884A6880B2114605F018FBE9
:1015800010BD888882B20888114680B205F0ACFB95
:1015900010BD012010BD10B5B02805D0B12808D06D
:1015A000B2280BD0012010BD088880B205F08AFE59
:1015B00010BD088880B205F0B5FE10BD08884B68E4
:1015C0008A6880B2194605F0BEFE10BD10B5A0387D
:1015D000030013F0A3FD0B070E172028323C434DE8
:1015E000545D65004B6808788A68194607F0EFF982
:1015F00010BD88888A6883B20888194680B207F0CF
:10160000FBF910BD08884C68CB688A6880B2214617
:1016100007F002FA10BD08884B688A6880B2194644
:1016200007F01CFA10BD8888CB6884B208888A68E5
:1016300080B2214607F03CFA10BD8888CB6884B29E
:1016400008888A6880B2214607F05CFA10BD0888D5
:101650004A6880B2114607F090FA10BD088982B23C
:10166000888883B20888194680B207F090FA10BDC6
:1016700008884A6880B2114607F0ADFA10BD0889A3
:101680004B6882B20888194680B207F02AFB10BD69
:1016900008884B688A6880B2194607F0E7FB10BDDE
:1016A000012010BD10B507F0CEFC0FF05FFF00F079
:1016B00007F810F0ADF808F0C9F908F055F910BDB9
:1016C00001202B49C00308602A490020087003202C
:1016D0002949800288607047F8B5264D044628786D
:1016E000A04207D0002C05D0002803D023A14D2014
:1016F00013F023FC2878A04213D02C70032500237C
:101700002349AD021C48002C27D01B4A214E4032F1
:10171000214F012C06D0022C13D018A16E2013F0FB
:101720000CFCF8BD0B6002230B604E6185601B4909
:1017300011625762091D91621749091DD162456006
:10174000F8BD0B6003230B604E610121C90281606B
:10175000134B9362D7624160F8BD0B600B608560EC
:10176000F8BD10B505A1772013F0E7FB10BD000010
:1017700080E100E02000002000F501407372635C0E
:1017800068616C5F63636D5F6161722E630000006E
:1017900000F500407C01002000F0004000110040F6
:1017A000488100401CB50446002069460870204668
:1017B00009F0CAF86946204608F088FF002803D1DE
:1017C000FBA1B62013F0B9FB01A9204608F0DDFE0D
:1017D000002803D1F6A1BB2013F0AFFB68460078C8
:1017E0001CBD70B5F74D002428462C76203084713E
:1017F000C47113F0A1FC2846403804702030847373
:10180000847484762C74AC7070BDEAE710B50C4615
:10181000ED4982888A8042884A80007808700846AC
:101820000A38847008F087FEFFF7DBFF20460AF0D5
:10183000EFF9E44AE0321146383908461446813857
:1018400009F0F0F82146E0480BF084FC09F073F849
:1018500013F072FC10BD10B50120FFF7ADFD10BDF7
:10186000F8B509F049FDD84DD64C0A3D022802D002
:10187000207C00287CD0207E0026102819D1A0785A
:10188000002803D0CAA1D14813F057FBCD48E8384F
:10189000817A89070DD50146267160398989E180F1
:1018A000C17A217281896181C089A0810120A070E3
:1018B0002676C44F203FB87C002859D1C4486946D9
:1018C000808908F003FF002805D069466878097808
:1018D0004018687004E0BD48B5A11D3013F02DFB21
:1018E000207C002838D0BA488189FF300930406D0B
:1018F0008089814204D0B548ADA1223013F01DFB90
:10190000B348808908F088FF002804D1AF48A8A117
:10191000283013F012FB08F0F6FF00281CD0AC486A
:101920008089FFF73FFF697840186870A548403804
:10193000416D20318A7C012A0DD1A54A3E779289DA
:10194000C287C87C20700120B876207E102801D084
:10195000282800D1267626746978002908D09C486A
:101960008289FF300930C28601870120B8746E7009
:1019700009F092FC002805D1207C002802D0A8782C
:1019800001F0F0F8F8BDF8B50F460446FFF768FF20
:101990008C4D403D28788B4E002813D0002F10D15D
:1019A000307E002804D0FF2081A1C63013F0C5FA94
:1019B0002C22A91C204613F024F90E2020700020B0
:1019C00028708FE07F4D203DA87B002818D0002F85
:1019D000F7D1307E102808D0282806D0002804D05F
:1019E000FF2073A1D23013F0A8FA0120E070E87B49
:1019F000A070287C60700F2020700020A87371E018
:101A00000121204608F0B8FF002807D0307C0028CC
:101A100051D13946204608F0AFFFF8BDA97C69488E
:101A20000C38009068480A38002913D0017805293D
:101A300010D2002F56D1491C0170002666700D206F
:101A40002070012028750622A01C009913F0D9F8F7
:101A5000AE7447E05C4800210A380170B078002875
:101A600014D0002F3ED1307E002803D050A1594819
:101A700013F063FA002565700120524920700A2294
:101A8000091DA01C13F0BDF8B5702BE039462046A7
:101A90000BF0CAFA002825D1A87C002805D0002F19
:101AA00020D149480A380178C5E7A87E002802D02D
:101AB000307C002801D00020F8BD002F12D1307EEC
:101AC000002804D08F203AA1800013F036FA0026B7
:101AD00066700A203B4920700622091FA01C13F0E3
:101AE00090F8AE760120F8BD10B53648017E002989
:101AF00008D1007C012805D001210020FFF743FF19
:101B0000002801D0072010BD012010BD10B5012410
:101B10000AF0C6F80443FFF7E7FF044308F00CFFA0
:101B200001462143084610BDF8B51D4614460E4631
:101B300008F04BFD002807D0684608F051FD00284A
:101B400003D0002C07D101E00120F8BD9B2018A193
:101B5000800013F0F2F908F0EFFCA04204D21D4817
:101B600013A1583013F0E9F9009808F05DF93146F7
:101B7000009808F06BF9E2B22946009808F022FBC1
:101B800008F040FD002804D19F2009A1800013F037
:101B9000D4F908F0D3FE0E4800244030417C0029DF
:101BA00002D044740AF067F90948C480CCE7000009
:101BB0007372635C6C6C5F6374726C2E73302E6333
:101BC00000000000200300202C00002084060000FC
:101BD000D80100201502000010B50179002908D0B5
:101BE00001290BD0FF20FE49043013F0A6F9002094
:101BF00010BD831D42880488022103E042880488C6
:101C0000831D01212046FFF78FFF10BDF8B51F4649
:101C100015460E46044609F06FFB022803D0F14832
:101C2000007C00281FD0F0488089208008F0F4FD57
:101C3000002803D1EA49ED4813F07FF905246846EE
:101C400008F0F5FD00280ED0009808F037F9307044
:101C5000022809D0012807D008F029FE641E2406B6
:101C6000240EECD10020F8BD3946009808F0C2FAE5
:101C70002880002804D1AF20D949800013F05DF9F5
:101C800008F015FE002804D1D848D549193013F0C2
:101C900054F90120F8BD38B50446831D821C6946FD
:101CA000FFF7B4FF00280DD000206071684600786F
:101CB000012808D0022806D0FF20C949253013F09A
:101CC0003CF9012038BD2071FBE700215BE670B5CF
:101CD000C44C0546403C2078002803D1C148007E12
:101CE000002803D0BE49C24813F027F9287808F02D
:101CF00054FF28780BF079FB0020207101206071DF
:101D00003921E170207070BD70B5B64D0446403D7C
:101D10002878002803D1B348007E002804D0B448B6
:101D2000AF49183813F009F9AF4E2188B0898842BD
:101D300003D109F0E1FA022807D00220287101201E
:101D400068713821E970287070BD7F207076A648D0
:101D5000E17820304174A17801740020EEE710B5DD
:101D6000A04C403C207800280BD19E48007E0028E3
:101D700007D109F0C1FA032803D009F0C1FA0328FA
:101D800004D19A489649653013F0D7F89549002058
:101D90002031C8712071012060713A21E1702070FA
:101DA00010BD70B58F4C0646403C207800280BD102
:101DB0008C48007E002807D109F09EFA032803D042
:101DC00009F09EFA032804D1884885497B3013F036
:101DD000B4F8844D2035E87908280CD2E87910222F
:101DE000000100196830314600F029FEE879401CF6
:101DF000E871002000E007202071012060713B2184
:101E0000E170207070BDF8B5764D0446403D2878ED
:101E1000002803D17348007E002804D0B720704901
:101E2000C00013F08AF8704F2188B889884203D126
:101E300009F062FA022801D0022022E03E8C648878
:101E40007200788CF98B521C944217D3694A514323
:101E50009200504312F04FFF401EFF2180B2F53137
:101E6000884200D90846844200D22046711C401C9A
:101E700012F041FF761C7043401E86B2FE85EE8054
:101E800000202871012068713C21E9702870F8BD9C
:101E9000F8B5544C0546403C2078002803D1514801
:101EA000007E002804D052484D497E3813F045F892
:101EB000A878002801D0012804D1A888FF21F53195
:101EC000884204D94A484649783813F036F8464ED5
:101ED0002988B089884203D109F00EFA022807D078
:101EE00002202071012060713621E1702070F8BD60
:101EF0003D48002720308772A988B18501213176BD
:101F0000A978012900D00021817237484030407CF7
:101F1000002801D009F0AFFF2771E3E770B5314C1D
:101F20000546403C2078002807D12E48007E002836
:101F300003D109F0E1F9002804D02D482849A5383B
:101F400012F0FBFF287809F0AEFE0020207101207E
:101F500060713021E170207070BD70B5214C054674
:101F6000403C2078002803D11E48007E002804D081
:101F70001F481B490D3012F0E0FF287800280BD0D5
:101F8000012809D0022807D06878402804D31848CF
:101F90001349143012F0D1FF284609F0A4F90028A3
:101FA00001D0002000E00C2020710120607134215C
:101FB000E170207070BD70B50A4C0546403C207839
:101FC000002807D10748007E002803D109F094F9C2
:101FD000002804D006480249983812F0AEFF0BE002
:101FE000B01B000020030020D8010020AA0200003E
:101FF0000A060000C40900002978002914D00A2923
:1020000012D0142910D01E290ED028290CD0322924
:102010000AD04B2908D0642906D0FF2904D00B2010
:10202000FD49C00112F089FF284609F0BBFE0020DF
:102030002071012060713321E170207070BD70B596
:10204000F64C06462078251D002804D12046403055
:10205000007E002803D0F049F14812F06EFF3146AF
:10206000002008F06FFD2870002804D106223146B8
:10207000EC4812F0C6FD012060713221E170207041
:1020800070BD70B5E54C05462078002804D1204687
:102090004030007E002804D0E148DF49183812F0B3
:1020A0004CFF00216956042914D0002912D0081DC4
:1020B00010D0001D0ED0001D0CD0001D0AD0001D38
:1020C00008D00A3006D0283104D0D548D249163875
:1020D00012F033FFD448297801700120607131215A
:1020E000E170207070BD10B5CC4C2078002804D170
:1020F00020464030007E002803D0C749CB4812F06C
:102100001CFF08F019FAE08008F0DEFA20720020C7
:102110002071012060710521E170207010BDF8B5BB
:10212000BE4C07462034A07B25462035002805D12B
:10213000287E002802D1A878002804D05120B64972
:10214000000112F0FAFE09F0D7F81026022822D179
:10215000B7483988808988421DD1B0494839084636
:102160000A7F6038807A002A03D080070CD40C20C4
:102170000CE0800708D406200877AD484030407C4A
:10218000002801D009F077FE2E760020E073267437
:102190000120A073F8BD0220F8E710B59F4C20780D
:1021A000002804D120464030007E002804D09C48FE
:1021B0009949543812F0C1FE002020710E20A07001
:1021C0000F20E070FF20A0710020C04320819548BF
:1021D000C01D0178A1728188A1814088E081012021
:1021E0006071207010BD10B58C4C2078002804D18F
:1021F00020464030007E002803D087498D4812F0E9
:102200009CFE0821A01D0FF04DFA00202071012036
:1022100060712B21E170207010BD70B57F4D0446B8
:102220002878002804D128464030007E002804D0B9
:102230007E487949B83812F080FE7D481022214648
:10224000303800F0FCFB7A481022A118203800F04A
:10225000F6FB774830380FF02CFB75491022103907
:102260002C46A81D00F0EBFB002020710E20A07072
:102270002A20E07001206071207070BDF8B5674CB5
:1022800005462034A07B26462036002802D1307E29
:10229000002804D023206049400112F04EFEA978A6
:1022A000052912D0132910D014290ED015290CD0CD
:1022B0001A290AD0292908D03D2906D03B2904D063
:1022C0008D205549C00012F038FE28885A498842AE
:1022D00004D953485049E13812F02FFE09F00CF8A8
:1022E0000C212827022809D151482A888089904248
:1022F00015D14A484838027E002A01D0E17310E027
:10230000A97841760121017637760020E0734848AC
:102310004030407C002804D009F0ADFD01E00220EF
:10232000E07327740120A073F8BDF8B53B4F064653
:1023300038783D1D002804D138464030007E002802
:1023400004D03C483449D13012F0F7FD3146012029
:1023500008F0F8FB01242870002807D12F48062236
:1023600060303146054612F04CFCAC717C71172090
:10237000F8703C70F8BDF0B52B4F85B0403F3D7A0A
:10238000064626480078002804D13846A038007E4A
:10239000002804D0D3202049800012F0CEFD3078F0
:1023A000002806D0012804D022481B492C3812F0FE
:1023B000C4FD082D4CD21C4820380190C4693078E7
:1023C00000283FD0012804D01A4813491E3812F0C3
:1023D000B4FD294608310120884004430120A8406B
:1023E00020430090B1790D4C0802727969000919F7
:1023F0001043FF3101318881B01C12F063FC717809
:1024000000020843A9000919C031C862387A401C8B
:1024100038720199009811E0B01B0000E002002022
:10242000520500002500002000040020E9060000FD
:10243000D801002079030000FF0E0000C8610020D1
:10244000207108E029460831012088408443C5E70F
:10245000F748072101710121F5480B224171C27033
:10246000017005B0F0BD10B5F14C2078002804D102
:1024700020464030007E002803D0EE49EE4812F09E
:102480005CFD12F059FE00202071012060710A21CC
:10249000E170207010BD10B509F09DFB002804D03C
:1024A000E548E449583812F048FD08F043FA08F0CE
:1024B00026F80AF040FE002804D0BD20DD49800047
:1024C00012F03BFD08F085FA002804D05F20D949BE
:1024D000C00012F032FD12F02FFED8480024047024
:1024E000FFF77FF9D2480121047141710222C270C5
:1024F000017010BD70B5CE4D04462878002804D177
:1025000028464030007E002804D0CB48C9498F308F
:1025100012F013FD20781F2801D8601C04D1C64892
:10252000C449903012F009FD002028712078611C08
:1025300008F022FB012068712021E970287070BD2D
:10254000F8B5BB4C0646207825464035002802D118
:10255000287E002804D0B848B6499D3012F0EDFC22
:102560003078012806D0002804D0F720B149800037
:1025700012F0E3FC012060710C20207130780027FC
:10258000AF4E012808D008F0B7FE032869D008F044
:10259000B7FE032873D078E008F0AEFE002803D120
:1025A00008F0AEFE002804D008F0A6FE02283DD0B8
:1025B0006BE008F04DFA002867D0287C002864D131
:1025C0009F4802210C300EF0F6FF002806D00F21A4
:1025D000B089090212F08FFBB18100E0B7810122BE
:1025E0000321974807F02EFE954808F0D3FBB089E9
:1025F00007F0A4FF002804D18F488E49B93012F0AB
:102600009CFCB089002108F09DF9002804D08A487C
:102610008849BD3012F091FC297F688B09F047FB97
:10262000002831D084488349C13017E008F068FEA3
:1026300000282AD1287F002827D0012825D0042867
:1026400023D008F005FA00281FD0297F688B09F0F5
:102650002EFB002818D078487649D53012F06DFC52
:1026600012E0002009F056FA00280ED12771287CCC
:1026700000280AD1B089FFF795F806E0FFE70020AF
:1026800009F048FA002800D127711B20E0700120D2
:102690002070F8BD70B5664D04462878002804D136
:1026A00028464030007E002804D0634861498130CC
:1026B00012F043FC20781F2801D8601C04D10F20A1
:1026C0005C49800112F039FC002028712078611CDF
:1026D00008F066FA012068711A21E970287070BD4F
:1026E000F8B5534D044628780C272E46403600286E
:1026F0000AD1307E002807D108F0FEFD032803D060
:1027000008F0FEFD032804D14B484A49473012F037
:1027100014FC6079002801D0012829D1A079002873
:1027200001D0012824D1A07B002805D0012803D0A6
:10273000022801D003281BD1607B400718D0628893
:1027400001208003824202D82188814201D9207968
:102750000CE02079002804D0022805D0032803D0FB
:1027600004E0202A12D20CE0A0290FD201280DD0BB
:102770002079042805D12088202802D36188884246
:1027800004D92D482B495D3012F0D7FB2088708387
:10279000207930776079002802D0012803D00CE03E
:1027A000284A002105E0224A60329079002804D0AE
:1027B0000121204608F050F9074601202F71687169
:1027C0001821E9702870F8BD70B5194C05462078BD
:1027D000002804D120464030007E002803D015494F
:1027E000194812F0AAFB08F087FD0C2102280ED12F
:1027F00013482A8883899A4228D10246C032137F1F
:10280000002B04D1807E0E2803D00F2801D0217127
:1028100003E005201077002020710E20A0702E20EC
:10282000E0702888E08001206071207070BD000099
:10283000E0020020B01B00003E0300000004002066
:10284000D801002025000020D30400000220E3E787
:1028500070B5814C05462078002804D120464030D0
:10286000007E002803D07D497D4812F066FB08F009
:1028700043FD0C2102280ED17A482A8883899A4286
:102880001FD10646C036327F002A04D1807E0E2832
:1028900003D00F2801D0217109E06F481022A91C34
:1028A0001E3812F0AEF904203077002020710E207F
:1028B000A0702D20E0702888E080012060712070D9
:1028C000B4E70220F2E710B501780B0012F026FC05
:1028D0003D878738878758878787873B3E878787E5
:1028E00051548787878787874228872C3087878737
:1028F00087348787878787878746874A4E8720243C
:10290000876B5B5F6367876F877E827B77738700E8
:10291000801CFFF79DFF60E0801CFFF755FF5CE027
:10292000801CFFF7DDFE58E0801CFFF7B3FE54E08B
:10293000801CFFF705FE50E0801CFFF7DBFD4CE03C
:10294000FFF7A9FD49E0FFF78EFD46E0801CFFF789
:1029500012FD42E0801CFFF7E8FC3EE0801CFFF720
:102960008DFC3AE0801CFFF758FC36E0FFF73BFC9B
:1029700033E0FFF712FC30E0801CFFF7D0FB2CE0C7
:10298000FFF7B1FB29E0801CFFF77BFB25E0801CF3
:10299000FFF755FB21E0801CFFF70DFB1DE0801CBD
:1029A000FFF7DBFA19E0801CFFF7B8FA15E0801C8E
:1029B000FFF76EFA11E0801CFFF725FA0DE0801C8E
:1029C000FFF7EFF909E0FFF7CAF906E0801CFFF70F
:1029D0009BF902E0801CFFF77AF9012010BD00206E
:1029E00010BD10B51D49204812F0A7FA10BD70B5F2
:1029F000194A012411461B4D4031030012F08EFB91
:102A000005191C1C04191C0001220021154807F09F
:102A100019FC11480021483801774177C03809F086
:102A2000C2F9002804D010480C49D33012F085FABE
:102A3000FCE60C745565F9E608490C48F6E730B534
:102A4000134606E0CC18203CE47FD51A44555B1EA3
:102A5000DBB2002BF6D130BDE0020020B01B00003D
:102A6000A7040000D8010020430600004907000029
:102A700010B56038030012F051FB0A060A0F131854
:102A80001F262A31363B086800F090FD10BD05C9AD
:102A9000114600F0AAFD10BD086800F044FE10BD0C
:102AA00005C9114600F048FE10BD4B6808788A68D9
:102AB000194600F053FE10BD4B688A680868194635
:102AC00000F067FE10BD086800F07CFE10BD0888AD
:102AD0004A6880B2114600F098FE10BD05C9114643
:102AE00000F0C4FE10BD05C9114600F0FAFE10BD8D
:102AF000012010BD0120704701203F4940060860B9
:102B00003E4908603E490A68FF231B029A4383122C
:102B10001A430A60384980390860704710B5024688
:102B20000420384904E0C3005B181B79002B0AD04D
:102B30000346401EC0B2002BF5D133A1432012F052
:102B4000FCF9FF2010BDC300CA50002259184A7179
:102B50008A7101220A7110BD2A4A0021C000801822
:102B60000171704710B50446042803D326A15220F2
:102B700012F0E3F92348E1000C182079012803D072
:102B800021A1532012F0D9F96079A179401CC0B27B
:102B9000814200D0607101201749400680310860F1
:102BA00010BD70B5164800680004800F022803D0DD
:102BB00015A1692012F0C1F9124E194C0325207895
:102BC000C10088190279012A07D1427983799A4292
:102BD00003D042798271705880472078401CC0B27F
:102BE0002070042801D30020207028466D1EEDB20D
:102BF0000028E4D170BD000080E100E080E200E048
:102C000018E400E02C1200207372635C736F635F42
:102C10007369676E616C6C696E672E6300000000FB
:102C20003C00002010B5EFF31080C407E40F72B62B
:102C3000D6484178491C41704078012801D10FF0F5
:102C400021F9002C00D162B610BD70B5CF4CE078F0
:102C500000280AD10125E570FFF7E4FF0FF01AF90B
:102C6000002804D000200FF0EDF8002070BDC84807
:102C700065714560F9E770B5EFF31080C507ED0F9A
:102C800072B6C24C6078002803D1C2A18F2012F026
:102C900054F96078401E60706078002801D10FF010
:102CA000F5F8002D00D162B670BD10B5B748C178F7
:102CB000002904D000214171C170FFF7DCFF002022
:102CC00010BD10B504460FF0E5F8B049C9780840CA
:102CD00000D001202060002010BDF8B50246AB4CAA
:102CE0000026A6710820042101251027130012F0E8
:102CF00015FA0D080A0C0E101214161E2621232593
:102D00002800257122E0022001E021711EE02071DF
:102D10001CE027711AE02020F9E7012616E0FFF7F2
:102D200081FF0FF0B7F80028FBD002260EE02171DA
:102D3000A5710BE02771FBE7202000E04020207107
:102D4000F6E7FF2093A17E3012F0F7F80FF0AEF80F
:102D5000002809D00FF0B0F8B04205D130460FF08E
:102D6000AEF80028FAD024E001208007C5608D4A23
:102D7000002151608C4A9661854B02225A60856021
:102D80008A4803690569DB43DB06DB175B1C1027F8
:102D90003D430561834D00E020BF6F68002FFBD0ED
:102DA000002B03D1076910239F4307617848826095
:102DB0006960A07900280CD00FF06CF805460EF081
:102DC000C9FF7B4A002D02D0A260E06001E0E26012
:102DD000A060002E01D100F0B1F8F8BD10B5044696
:102DE0000FF05EF8002805D068490120C8704A78C5
:102DF000521C4A702046FFF770FF10BDF8B5694FAE
:102E0000B8680025012802D1BD600FF01BF8786872
:102E1000012800D17D60386801265C4C012814D15E
:102E20003D606079002803D000200FF00BF8657139
:102E30002078002809D00FF02DF8002805D0594837
:102E4000C038866300060661A670386901282CD157
:102E50003D6100F068F8012080074661A0790028F4
:102E600015D00FF017F800900EF074FF00990029AC
:102E700001D0E16800E0A168411A022901DA8A1C48
:102E800013DC0099002901D0E06000E0A060FFF7AA
:102E9000C9FE0EF0FFFF002806D04248C038866306
:102EA00000060661A67000E02670F868012819D1B6
:102EB00000F039F800F037F800F035F8A078002875
:102EC00004D1FF2033A1053012F037F8FD60A57062
:102ED0002570FFF7D0FE0EF0B4FA002802D031487A
:102EE000C038C663F8BD10B5284CE078002801D181
:102EF0000EF0CCFF01208107886100F014F8A07863
:102F000000280BD0274CE068002803D10EF0D7FF33
:102F10000028F8D10020E06000F005F800201C49EE
:102F2000C043886010BD08B55020694608806A46D5
:102F30001088411E11800028F9D108BDF8B5144849
:102F400019278760174900200860C8600EF0A2FFAB
:102F5000BD0701240D4E002805D01248C0388463F7
:102F60002C61B47000E03470FFF75CFE08484760E5
:102F70000D4930798863FFF7D6FFAC61FFF7D3FFC7
:102F80000849002008616C61F8BD00004000002085
:102F9000000300407372635C736F635F636C6F6305
:102FA0006B2E6300000100400005004000ED00E0D2
:102FB000FFFFFF7F10B510F020F810BD002004497E
:102FC000C863012001218140024A116000BF70479F
:102FD000C01F004080E200E010B504460BF051F83D
:102FE00020460CF066F810BD704770477047704778
:102FF0007047704770477047704770477047704719
:1030000010FFFFFFDBE5B151006001005A00FFFF38
:1030100003B40148019001BD09000020FE49487039
:10302000704710B5030012F079F8080E050E080875
:103030000B0B0E1104F06BF810BDFFF7CDFF10BDA8
:103040000DF0A0FF10BD01F077FE10BDFF20F3A131
:103050009A3011F072FF10BD7FB5F44905464868FB
:103060008968082301910090F14A1946F1480EF051
:1030700043FD0024F0480EF05DFD641CE4B2082C12
:10308000F8D3EB490320803140020CF0E7F8002828
:1030900003D0E2A1BF2011F050FF1E220221E74819
:1030A0000AF09FFCE5481E22032110300BF013FAB2
:1030B000E2480722342174300AF0ECFBDF484C214F
:1030C000283011F0FDFDDD496A46743108464C3860
:1030D0000164FF317B31416401211172039002F0E0
:1030E000AAF802A80CF008FC002803D0CBA1D3203A
:1030F00011F023FFCF4802222421A8380AF0CAFB8E
:10310000CC4802222C215C380AF0C4FBCC490B20AD
:103110000EF03AF8002803D0C0A1E02011F00DFF16
:1031200003F0DEFF03F0E2F904F03EFE6B460022FE
:103130000821C4A001F06EFF002803D0B7A1E7204A
:1031400011F0FBFE284605F049F9002803D0B3A191
:10315000E92011F0F2FE8521C900BD4811F0B0FD53
:10316000BB49B24A0020135C0C18401CC0B2E3708B
:103170000428F8D3A849002048608870C8707FBD33
:1031800070B5B44E0546706A94B00C46401C04D12C
:10319000B06AC0430004000C0BD0306AC007C00FF7
:1031A0002870706A11F09FFDB06A2071000A60718A
:1031B00014E02B206946087009A968460AF0B0FBA4
:1031C000002804D0FF2095A10E3011F0B6FE01209A
:1031D000287006220AA9204611F013FD287800283D
:1031E00003D06079C0210843607114B070BDF0B5A0
:1031F000984C0646206895B00D463746401C083767
:10320000002808D16068401C05D1A068401C02D18C
:10321000E068401C11D02068314611F064FD606800
:10322000311D11F060FDA068394611F05CFDE068C9
:1032300031460C3111F057FD25E02B20694608700E
:1032400009A968460AF06CFB002804D0FF2073A18E
:10325000373011F072FE08220AA9304611F0D1FC75
:103260002B206946087009A968460AF059FB002816
:1032700004D0FF2069A13E3011F05FFE08220AA9A8
:10328000384611F0BEFC20692E46401C0836002846
:1032900008D16069401C05D1A069401C02D1E069D9
:1032A000401C12D02069294611F01DFD6069291DBE
:1032B00011F019FDA069314611F015FDE0692946AC
:1032C0000C3111F010FD15B0F0BD2B2468460470D0
:1032D00009A90AF025FB002804D0FF204FA15C308B
:1032E00011F02BFE082209AF0AA9284611F089FC2B
:1032F0006846047009A90AF013FB002804D0FF20D7
:1033000046A1633011F019FE0822391D304611F034
:1033100078FCD8E710B5002108460EF0C3FC002168
:1033200001200EF0BFFC002102200EF0BBFC0021AA
:1033300003200EF0B7FC002104200EF0B3FC0021A6
:1033400005200EF0AFFC10BD10B5414CA0780B2845
:1033500004D3FF2031A1B33011F0EFFD20786021BC
:10336000484300190830002101704178E722C9085C
:10337000C900C91C11404170274A0121917010BD3C
:1033800070B5254CA07800280ED031480025017872
:10339000491CC9B201700B2900D105708178491C04
:1033A00081700EF04AFDA57070BD70B51A4C0546CF
:1033B0006068002804D0FF2018A1DC3011F0BDFDAA
:1033C000656070BD70B5144E214DFFF7BDFF71688B
:1033D0000446002907D06022FDF7F6FEFFF7D0FF74
:1033E00000207060F1E72879002876D011485C3819
:1033F0000AF060FA6060002804D1FF2007A1FA30CB
:1034000011F09BFD60680AF0B3FA002831D0204625
:1034100000F03FFF60781FE0340000207372635CAF
:10342000686F73745F636F72652E630048510100AB
:10343000040400200C12002023300000840A002025
:10344000B41000206E524635313832320000000090
:103450008C0C002080000010010707D5C008C000B8
:10346000401C60702879401E287127E0F748616889
:103470002AE0F64861680AF026FA687900282CD01C
:10348000F2484C380AF016FA6060002804D1872010
:10349000EF49800011F051FD60680AF06DFA0028D4
:1034A00016D0204603F072FE6078010709D5C008E7
:1034B000C000801C60706879401E6871FFF760FF73
:1034C00083E7E24861684C380AF0FDF97DE704E0E3
:1034D000DE4861684C380AF0F6F970BDF7B505466C
:1034E0000078002700090C463E46062803D0D8493C
:1034F000D84811F022FD287A00280ED0012814D0D7
:10350000D448D349213011F018FD0298002C0680D0
:1035100001D0278066800020FEBD02270926002CEE
:103520000ED0A889A080A87B08E003271426002CD1
:1035300006D02869E060A88A2082287B2072E4E710
:1035400002980680E7E770B50E4600211C461980F8
:103550001546030011F0E2FD0723050B1711231D8B
:10356000230022462946304603F0DCFD70BD22468A
:103570002946304601F051F970BD224629463046B1
:1035800004F00DFB70BD22462946304602F0E2FFF2
:1035900070BD224629463046FFF7A0FF70BDAD48FA
:1035A000AB49473011F0C9FC032070BD10B5AA4CDF
:1035B0002178002901D0082010BDFFF74DFD012022
:1035C0002070002010BD0146A04810B54C380AF00C
:1035D0007AF9A2494879401CC0B24871012803D148
:1035E0009D484078FFF7BEFA10BDF8B505469C48E7
:1035F0000F46814208D3002D01D0854204D3E81C38
:1036000080088000A84201D01020F8BD934881783E
:10361000002911D0398800914178602251430C185B
:10362000083420783B460007000F00222146FFF7B0
:103630008AFF060004D015E0002038800520F8BD80
:10364000002D13D039880098814201D90C260DE055
:1036500020783B460007000F2A462146FFF773FFFC
:10366000060005D00C2E01D0002038803046F8BD71
:103670007A4D6878401CC0B268700B2801D10020D8
:103680006870A878401EA87061784807400F02282B
:1036900010D00128EAD16D4861680AF014F9287940
:1036A000401CC0B228710128E0D16B484078FFF778
:1036B00059FADBE7C806D9D46068FFF784FFD5E77D
:1036C00070B50446674816460D46814204D16148EC
:1036D0005F49C53011F031FC012E05D05D485C49D1
:1036E000D53011F02AFC70BD5B480121C170662005
:1036F000207000202072A581A17370BD70B51646A0
:103700000D46040001D1FFF71FFE66210170012163
:10371000017229680161A98881820673002C01D198
:10372000FFF72EFE70BD4E49884201D2102070472F
:1037300007210170002070474B4A10B5904208D312
:103740000124A404464AA04201D3904201D39142ED
:1037500001D2102010BD0DF050FD10BD424B10B530
:10376000994208D30124A4043D4BA14201D39942BC
:1037700001D39A4201D2102010BD022803D0102894
:1037800001D0092010BD0DF05EFD0028FAD0052003
:1037900010BD354B10B598420CD30124A404304B16
:1037A000A04201D3984205D3994203D3002A03D003
:1037B0009A4201D2102010BD0DF06BFD0028FAD006
:1037C000072010BD10B50446254894B0844202D2AB
:1037D000102014B010BD01F09AFD002801D0112076
:1037E000F7E70F2008A9087369460BA80AF098F8B4
:1037F0000028EED16846007A2070684640896080D3
:1038000068468089A0800020E3E710B5124C084686
:10381000E17800290ED000280AD0114A904202D344
:103820000368934201D2102010BD8288002A03D081
:10383000012903D0082010BD092010BD04F018FB99
:103840000028FAD10021E17010BD0000B011002065
:103850001C3400003E020000340000208C0C0020CC
:1038600000200020FFFF00000060010010B5244A86
:1038700094B091420DD301229204224B914201D384
:10388000994206D3441E1E2C24D8914203D3994258
:1038900001D210209DE701281AD108780024C00722
:1038A000C00F002803D001206946887001E06846F7
:1038B000847039206946087009A968460AF030F812
:1038C000002803D010498C2011F037FB204680E7F8
:1038D00007207EE70246203A1F2AF9D801F03AFC79
:1038E00077E7084A10B5914201D21020ACE70246B2
:1038F000203A1F2A02D801F083FCA5E70720A3E79E
:1039000000600100002000201C3400008107C90E67
:10391000002808DA0007000F083880082C4A8000C9
:103920008018C06904E080082A4A80008018006876
:10393000C8400006800F704710B50D20FFF7E6FF66
:10394000C4B20420C043FFF7E1FFC0B2844203D0F9
:1039500021A11A2011F0F1FA10BD0121234A4803D8
:103960001060234B00221A60224A5160224A1060E4
:10397000224A11601D4980390860704701211B4AA5
:10398000480310601D4A5160194A002111601A490C
:103990000860704710B516490868012804D00EA1C8
:1039A000562011F0CAFA10BD154880680022C0B236
:1039B0000A600DF09DFE10BD10B50D48016800298C
:1039C000FCD0FFF7E7FF01200B494003086010BD62
:1039D00000ED00E000E400E07372635C736F635F0E
:1039E00068616C5F726E672E6300000080E100E02A
:1039F00000D1004000D3004080E200E000D0004051
:103A000000D5004030B40121BC48C9020160CD108E
:103A100005604A030260BA4803681B021B0A036080
:103A200004680023240A24020460B6480468240AB7
:103A300024020460B448012444608460B34C2360D1
:103A40006360A360B24B19601D601A60B14B1960CE
:103A50001A600121016030BC704710B40121A748F1
:103A6000CC0204600A0202600B060360A6484160B3
:103A70008160A6490020086048608860A44804600E
:103A80000260036010BC70470121A148C9020160B7
:103A9000C91001607047002805D0012805D0022810
:103AA00005D19D4870479D4870479D48704710B5A7
:103AB0009CA18B2011F041FA002010BD70B50021AF
:103AC0009F4CA04DA04A914B002808D001281DD042
:103AD000022822D093A1B32011F02FFA70BD01204B
:103AE0000004A060A86011601960984B42109A60B1
:103AF000974A9060814A001210609648016087489A
:103B00000160954801609548017070BD0120400436
:103B1000A060A8605160596070BD01208004A06061
:103B2000A8609160996070BDF8B59446844A854D4F
:103B300000240127754E002808D0012836D002281D
:103B400044D078A1E82011F0F8F9F8BD891E0902E7
:103B5000090A012000049060346068607A4A1160AC
:103B6000012B21D000217D4A7D4B517061463D31B2
:103B7000DC63DF637B4B5C6002249C6004241C617B
:103B8000744B196074490F60614B89151960704B53
:103B900058606048016075487349C16086606B4930
:103BA000600348601770F8BD0121DCE701205C4E1E
:103BB00040046F4F012B04D134605060686039605D
:103BC000F8BD9060346068603960F8BD0120524EE5
:103BD0008004684F012BF4D1EEE7674840687047D6
:103BE00070B54A4D28680026554C012806D1A068BA
:103BF000C00303D501200004A0602E60686801287E
:103C000009D1A068800306D501204004A0606E6041
:103C100001200FF02EF9A868012809D1A0684003FF
:103C200006D501208004A060AE6002200FF021F9CB
:103C300070BD10B549490878002818D00120434AC2
:103C4000C0039060424A400090602C4A001210600D
:103C5000404A00201060314A10603F4A10600870EE
:103C60004A78002A02D048700FF003F910BD0320F3
:103C7000FAE7012041490006086070470120244905
:103C800000060860704701203C4940050860704705
:103C900001201F4940050860704731490020C86372
:103CA00088151B4908607047410A354AC005C00D98
:103CB0005043801C5143400A0818704710B4314CDF
:103CC000430B63431B0C5C020C602D4C6343C31A13
:103CD0002D485C0258432A4B400D4343E31A01240C
:103CE000DB0324041B191B1613700A6810180860E4
:103CF00010BC704710B50FF094F910BD80E100E0E2
:103D000008E400E018E400E000B0004040B10040EA
:103D100080E200E000E100E048B100404081004066
:103D200044B100407372635C72656D5F68616C5F83
:103D30006576656E745F74696D65722E6300000050
:103D400000B3004040B3004040B5004000F50140E2
:103D50000083004040850040008200405000002069
:103D6000C08F0040008500400080004080F5014089
:103D700044B5004048B5004000B5004000E200E016
:103D8000093D0000378600006F0C01000E4A1268E2
:103D90000C498A420AD118470B4A1268094B9A42C9
:103DA00004D101B50DF0BFFD03BC8E46074909687B
:103DB0000958084706480749054A064B704700005E
:103DC00000000000BEBAFECA1C0100200400002052
:103DD000881D0020881D002010B5F84C94B0216883
:103DE000087A002836D017206A46107000A80622EC
:103DF0000931023010F005FF09A9684609F090FD6D
:103E0000112825D02168C0318979062920D00729B9
:103E10001ED008291CD004291AD0092918D00A2933
:103E200016D00B2914D0052912D0002803D0E4A104
:103E3000F42011F082F82168B820405806221C3086
:103E4000093110F0DEFE2068017A8030806BC17687
:103E500014B010BD3220C7E770B5D84D04462968AC
:103E60000300C03111F05AF90C077C0B1A212E3BCC
:103E700048515C677080FF20D1A10A306EE08879DC
:103E800001286DD009286BD0052869D00A2867D091
:103E90000B2865D0FF20CAA10F305FE08879012888
:103EA0005ED0FF20C6A1163058E08879062857D08A
:103EB000072855D0082853D0052851D0FF20C0A18D
:103EC00019304BE0887909284AD00A2848D00B28B5
:103ED00046D0042844D0FF20B9A11F303EE08879A5
:103EE00003283DD007283BD0082839D0092837D0EF
:103EF000FF20B3A1253031E08879062830D00A2888
:103F00002ED0FF20AEA12B3028E08879062827D0BC
:103F1000072825D00B2823D0FF20A9A12F301DE092
:103F2000887906281CD00A281AD00B2818D0FF2020
:103F3000A3A1343012E08879092811D00A280FD0C3
:103F4000FF209FA1393009E08879092808D00A2884
:103F500006D0082804D0FF2099A13D3010F0EDFFD5
:103F60002868C030847170BDFF2095A14230F5E70C
:103F70009249C9220968525CD206920F05D1A0313C
:103F80008A8B824201D1887F70470020704770B5CC
:103F90000446112020700021884D61702968C031CD
:103FA000897A002908D003290ED0042910D0FF20D7
:103FB00083A16B3010F0C1FF20780009012802D9DD
:103FC0002868807D607070BD0007000F203002E01F
:103FD0000007000F30302070EEE730B503887C49D1
:103FE0007C4C8B4202D09A1FA2421ED242888A4247
:103FF00002D0951FA54218D2934216D883887D24FB
:10400000E400A34211D8C088884205D0714D04460F
:104010000A3C2D1FAC4208D2884208D08A4206D002
:104020005B1C5A43C000824201DD072030BD0020E6
:1040300030BDFFB50022099B002802D0994205DC63
:104040005CE0002902D1002004B0F0BD0920FBE7AC
:10405000845C002C12D085186F780D2F4CD010DCAA
:104060003B0011F05BF80A421B2A2A303032323A08
:104070003A42835C002B3FD1521CD2B28A42F8DB19
:10408000E1E7122F31D004DC0E2F35D00F2F2CD1C9
:1040900032E0142F11D0152F27D116E0022CD5D1E4
:1040A000AB78039C072B237001D25B0701D40A2055
:1040B000CAE7029B01241B7814E0E343DB0708E016
:1040C000012C08D011E00620BEE70F2523072D079D
:1040D0005B19002BF4D03046B6E7029B1B789C0797
:1040E0000AD402242343029C2370835C521C9A1836
:1040F000D2B28A4204DDA9E70B20A5E71926760291
:104100008A42A5DB9FE705E00278401C002A01D027
:10411000002070470A46491E89B2002AF4D10120C6
:10412000704770B5254D00212868C943A0308183B0
:1041300000248477214606200DF0B4FD00210520DF
:104140000DF0B0FD002102200DF0ACFD0120FFF7C5
:1041500083FE2868C030C471047201F062FF70BD34
:1041600030B5164C95B02268C0329279042A0CD032
:10417000052A0AD028236A4613705080132906D0D6
:104180003B2904D0072015B030BD0820FBE7117192
:10419000104609A909F0C4FB05000BD12068C03006
:1041A0008179062908D0082906D0072904D00520DE
:1041B000FFF752FE2846E6E70420F9E75400002006
:1041C0007372635C6761705F636F72652E6300007A
:1041D000FFFF00007B0C000030B587B0040003D067
:1041E000002107200DF05EFDF74D012128686A4689
:1041F00001720421117003210C300DF053FA29686B
:104200004022887B8006800E1043887368460BF03E
:1042100094FB00280DD12968098A00290AD0002CB6
:1042200008D08B000122002107200DF096FC072802
:1042300002D0032007B030BD0020FBE770B5002599
:104240000646002803D0002107200DF02BFDDE4C90
:10425000012120680172062109300DF023FA20683F
:10426000817B8906890E8173FFF7B6FD2068008A7D
:1042700000280AD0002E08D0830001220021072048
:104280000DF06BFC072802D00325284670BD0025E1
:10429000FBE7F0B59BB0040003D1CC49CC4810F04B
:1042A0004CFE72202070616800260A780825521F93
:1042B0000127C548130010F031FF0F097CDFFD7C9A
:1042C0007EFCFBBB7C7C7C7CFAF97C00BE480068F1
:1042D000C0308079032804D0BD48BC49093010F0B3
:1042E0002CFE002108460DF0DDFC002107200DF01A
:1042F000D9FC6078B44A28436070106810250146E4
:10430000C0314B7A2B434B7263689D783C2D4DD066
:1043100002469D88A032977763688030DB890B80E6
:1043200063681B8A4B8063685B8A8B8095836168B6
:10433000826BC97911756168806B0831153006226E
:1043400010F05FFC0620FFF787FD9F48FB23006805
:104350000146C0318E72027E1A400276B82212588F
:10436000937A9B089B0093724682487A4006400EDF
:104370004872284602F0C0FE002804D094489349B1
:10438000243010F0DAFD284602F0D0F8002804D0DE
:104390008F488E49273010F0D0FD284603F016FDD7
:1043A000002806D08A48894929303EE10120FFF7DC
:1043B00053FD1BB0F0BD074600688E88C030807981
:1043C000062812D0072810D008280ED004280CD0B8
:1043D00009280AD00A2808D00B2806D0052804D0BE
:1043E0007B487A49353010F0A8FD6078284360702A
:1043F0003868C030417A294341728079092811D048
:104400000A280FD00B280DD005280BD0FFF789FE06
:10441000304602F07AFE304602F08EF8304603F065
:104420000BFDC6E7FFF77DFE0220FFF715FDEFE766
:104430000068C0308079062812D0072810D00828DC
:104440000ED004280CD009280AD00A2808D00B283E
:1044500006D0052804D05E485C49593010F06DFD47
:104460006068807902F004FF0028A2D061782943B7
:1044700061706168C8809CE707460068C030807939
:10448000062812D0072810D008280ED004280CD0F7
:1044900009280AD00A2808D00B2806D0052804D0FD
:1044A0004B484A496C3010F048FD04E037E1A1E187
:1044B00090E090E015E06078284360706068C18803
:1044C0003868C03001806168098941806168498924
:1044D0008180002102200DF0E5FB3868C030C671F4
:1044E00067E706460068C0308079062819D007289B
:1044F00017D0082815D0042893D0092811D00A28ED
:104500000FD00B280DD005288BD031482F49833090
:1045100010F013FD3068C03080790428ABD0052836
:10452000A9D03068807C40063AD5606802210C3002
:10453000FFF7E9FD002833D060680821001DFFF770
:10454000E2FD00282CD03168B8204058807A8007DE
:1045500008D1CA20405C002808D1488AC20505D588
:10456000C00703D1488A4022904348824A8A80206B
:1045700082434A822D2268460270BC20425A684615
:1045800042801022973101A810F03BFB09A9684630
:1045900009F0C6F90028A3D03D200C49000144E0F1
:1045A00062683068AC2192890A5261680822091D4C
:1045B000AE3010F026FB10A805743068AE301590B0
:1045C00014A80BF0BAF9F4E654000020C041000032
:1045D000260300008F7106460068C03081790629E5
:1045E00019D0072917D0082915D00429EBD009299B
:1045F00011D00A290FD00B290DD00529E3D0FD20B9
:10460000FA49800010F099FC3068C03080790428A5
:10461000D9D00528D7D060688179002902D0807868
:10462000002805D02320F149400110F086FCC0E6A7
:104630006078B8212843607030680958897A890702
:10464000890F012951D1817C09064ED4017E490789
:1046500001D5042100E00321C03081722B2069467E
:10466000087009A9684609F05BF9002803D0DF4902
:10467000DF4810F062FC68463168008D88820E22A7
:1046800010A80274DB48B8221590525808324261D3
:104690000A4660324260927902700A461432026120
:1046A000521D82601032C260133A82619632C2613A
:1046B000921C0262473A4262103282621032C26237
:1046C000473AC263521E0264921F503142648164B1
:1046D00014A80CF01BFB022815D0002813D0C448E6
:1046E000C249293010F029FC0DE0817C4906017E89
:1046F000490701D5042100E00321C0308172002167
:1047000006200DF0CFFA3068418A0A0602D4402212
:104710009143418289B280229143418249E6B64861
:104720000068C0308079032804D0B148AF495730C1
:1047300010F003FC002108460DF0B4FA0021072018
:104740000DF0B0FA6078AC4A28436070106810250C
:104750000146C0314B7A2B434B7263689D783C2DE8
:1047600000D123E602469D88A032977763688030A7
:10477000DB890B8063681B8A4B8063685B8A8B8054
:1047800095836168826BC97911756168806B0831A6
:104790001530062210F035FA0620FFF75DFB96482B
:1047A000FB2301680A46C0329672087E18400876DC
:1047B0004E82507A4006400E5072284602F09CFC11
:1047C000002804D08A488949723010F0B6FB284688
:1047D00001F0ACFE002804D085488449753010F003
:1047E000ACFB284603F0F2FA002897D080487F49B6
:1047F00077301AE7607828436070DAE500290BD03B
:1048000088807D480068C0300288CA8002880A819A
:1048100042884A81808888817047F7B506460078CB
:104820000C460027010982B03D46012974D0724828
:1048300000680090C03002296FD0072904D00A29EF
:104840006CD06A496D480DE271680A78521F1300F6
:1048500010F064FC0F09A451A4A42F585847A4A435
:10486000A4A4656FA4008A783C2A1BD010271625C3
:10487000002C7DD08888A0807068A21DC08920820D
:104880007068C089E0817068008A60827068408AC0
:10489000A082716808460831C07901F0B1FB0020A0
:1048A000607375E019270725002CE2D00021A17163
:1048B00071E011270725002CDBD089880091A180A9
:1048C0007168F7228979A171417A1140417200988B
:1048D00002F01CFC009801F033FE009803F0BAFAD5
:1048E000D2E101270925002CC3D08888A0807068F8
:1048F00080792072C8E1888812270E252146FFF7AB
:104900007DFFC1E118270825002CB2D08888A0803F
:10491000A01DFFF73CFBB7E144E0A6E15CE01A27ED
:104920000725002CA5D04888A08070680079A07168
:10493000AAE18A783C2AB5D010271625002C98D0F9
:104940008888A0807068C08920827068C089E081F2
:104950007068008A60827068408AA0827168607B9B
:10496000497D40084000C907C90F0843607300E053
:1049700093E17168C007497DC00F490849000843A9
:1049800060737168A21D08460831C07901F038FBD8
:1049900019480068C030417AEF2273E1A72013491B
:1049A000C0005FE1307A012803D014480F49C838AD
:1049B00058E112270E2570892146FFF71FFF002CB2
:1049C00092D070784007400F032889D10A480068C8
:1049D000C030417AFB2255E107490968A031002C1B
:1049E00001D08A8BA280327A921E09E0C041000079
:1049F00015040000AC12002054000020170600002F
:104A0000130010F08BFB073D4853FDEB6F05FD00D5
:104A100013270C25002C85D0009900224A82F168CA
:104A200089788907890F0129217A26D04908490008
:104A30002172FD231940F3689B785B07DB0F5B0055
:104A400019432172E323E2801940F3681B785B0766
:104A5000DB0E19432172DF231940F3685B78DB0713
:104A60009B0E194321726272F1680122C978A1720A
:104A7000017A1143F7221140ADE001231943D7E732
:104A800015270C25002C9BD0F06806220068A11D7C
:104A90000EF05CFFF8E016270725002C90D0317B44
:104AA000A171017A08221BE00172EDE014271225A2
:104AB000002C85D00098A21D8030806B01461531F6
:104AC000007D01F09DFAB089E081207C012108433E
:104AD000F92108402074FD480068C030017A0222A4
:104AE0001143E1E717273825002C94D03221A01D6F
:104AF00010F0E4F80020A071207A0321084320720E
:104B0000FB210840F14909680A7E5207D20F920042
:104B100010432072B8204058807A800757D0A07A7E
:104B20008A7C4008D2074000D20F1043FD2210407B
:104B3000A0728B7CFB229B07DB0F10409B0018436D
:104B4000A0728B7CF7269B07DB0F3040DB001843FD
:104B5000EF231840A072E07A10408A7CD206D20F70
:104B600092001043E0728A7C3040D206D20FD2000D
:104B70001043E072888AA0812046102267310E30EF
:104B800010F03FF8D149A07F0968C0078A7DC00FA7
:104B900052001043A0770A7E400852074000D20F0F
:104BA0001043A077084640304DC820344DC4303CF7
:104BB0003F20405C22463032393101F021FAC348AF
:104BC00000688030806B817A890889008172BF48D3
:104BD0000068C030017AFB22114065E7327B022A6F
:104BE00018D017273825002C11D0017AFB23194043
:104BF0000172012A17D0032A22D0042A23D000E010
:104C00002DE0052A1FD0B249B24810F096F901F004
:104C100008FA39E019270725002CF8D0898BA180E4
:104C20000121A17103E00121A1710021E171417A0B
:104C3000CA094906D201890E49000A434272E6E7D1
:104C40000220A07106E0707B0007000F8030A07189
:104C5000052A02D00020E071D9E70120FBE79D483A
:104C60009B490C3010F069F90EE0317A00290BD124
:104C700019270725002C10D0491EA1800021A17101
:104C8000417AFD22114041720498002C058001D028
:104C900027806580002005B0F0BD04980580F9E705
:104CA00010B58A4C94B02068C0308079022809D0B1
:104CB000032807D0052805D0092803D00A2801D0E9
:104CC0000B2837D11B2108A8017300218173694685
:104CD0000BA808F025FE002804D1684640781B2860
:104CE00002D0032014B010BD002108460CF0DAFFFA
:104CF000002107200CF0D6FF68468078002819D1E3
:104D00002068C0308079801E030010F007FA0A0680
:104D10000613081313130D0F1113012000E00420D4
:104D2000FFF79AF80020DDE70620F9E70720F7E70C
:104D30000820F5E70820D5E770B50025634C00286A
:104D400007D0022817D0072828D062486049793058
:104D500046E0FFF7A5FF00280CD1FEF7F5FA222167
:104D600001700572FEF70CFB2068C030417A022208
:104D70001143417270BDFEF7E7FA12210170012163
:104D800001722168BC22525A4281C031CD71FEF7B6
:104D9000F7FA2068C030417A0422E9E72168C6208A
:104DA000405C022809D0032807D0092805D00A282A
:104DB00003D00B2801D00528DCD1887B810901298B
:104DC00011D0800904D043484149703010F0B5F843
:104DD0000020FFF733FA0028CCD03E483C4974301D
:104DE00010F0ABF870BD0020FFF7F6F9F3E770B5EF
:104DF0000D46040004D137483549813010F09DF844
:104E00002078012805D0334831499F3010F095F8BB
:104E100070BDA18830482D4E814209D1E28882427E
:104E200006D130681321A030808BFFF799F970BD4F
:104E3000814202D1E08800280AD0122028706878C8
:104E400008210843687007CC083507C5002106E033
:104E500000227823114602200CF07FFE02213068E8
:104E6000C030C17170BD00B5184A87B01268C03239
:104E7000527AD20907D106236A4613700190117243
:104E800068460AF05AFD07B000BD00B587B007209C
:104E90006946087068460AF050FDF4E70B48006860
:104EA000C030807A704738B5084C054602782068D3
:104EB00013000146C03110F031F909A9061111A300
:104EC000204E738BA900FEF787FF38BD54000020E9
:104ED000C0410000F2050000FFFF000088790628AD
:104EE00005D0092803D0FE49FE4810F026F82068B6
:104EF0000422017E1143017682E0A9880029E4D0D2
:104F0000A030808BF8498842DFD0A868002804D1FF
:104F1000F448F349103010F010F82068C030407A9F
:104F2000C00904D0EF48EE49113010F006F8A86827
:104F300006220A38A86000902068AB88A030808BD9
:104F4000042102F00DF80028BFD0DB20E449C000A6
:104F50000FF0F3FFB9E788790528B6D92879012839
:104F600002D0022808D103E0487A80221043487218
:104F7000487A012210434872284601F05CF8206804
:104F8000C03080790628A0D9082801D8062004E07E
:104F900009289AD90B2898D80920FEF75DFF94E7D5
:104FA000887906280AD0042808D0092806D00528C0
:104FB00004D0CC48CA493D300FF0BFFF0ECDCB48DE
:104FC0000361C2608160A2210170FEF7EEF97CE707
:104FD0008879062818D0072816D009280DD00A2865
:104FE0000BD0C048BE4950300FF0A7FF2068C0303A
:104FF0008079062808D0072806D00B20FEF72CFF62
:10500000284601F018F860E70820F7E7B548B449EA
:1050100064309DE7FFB593B0012468460321847096
:10502000C9021D4601800AF060F90022694601208C
:1050300003F085F906460AF05CF9002E5CD168465B
:10504000152184704902018000271C2101A80897BE
:105050000FF036FE01200146103108A80170002033
:10506000014608A841708178F9200140891C21433C
:1050700008A88170684601790226314301711499AC
:105080008185C7851F21018608A80A9013980D9075
:10509000684609900AF029F90EAA09A901A802F0A8
:1050A0001CFF07460AF025F9002F02D0384617B03A
:1050B000F0BD8F4F68463968008F4880684684701D
:1050C0008C49018008A88078F9210840801C41089B
:1050D000490008A8817068468685068615A80D9047
:1050E0000AF003F90EAA09A901A802F0F6FE064685
:1050F0000AF0FFF8002E01D03046D8E7684639683C
:10510000008F88807B4968468470C91C018029888B
:1051100010A8018069884180A9888180E988C180C0
:10512000082168468185018610A80D900AF0DDF8F7
:105130000EAA09A901A802F0D0FE04460AF0D9F887
:10514000002C01D02046B2E768463968008FC8803D
:105150000020ACE7F0B5684E95B00C46B14235D3AF
:105160000127BF04654DBC4201D3AC422ED3202899
:1051700004D0212824D0222837D13DE03C216846A4
:105180000170218841806188818009A908F0C8FBED
:10519000002806D108A98979002904D002290DD058
:1051A000032015B0F0BD6168B142FAD3B94201D312
:1051B000A942F6D36A46128D0A80F2E75048F0E71A
:1051C00008684B4C002812D0A84201D21020E8E712
:1051D00006210EF0A5FB411C07D02168A8225050E3
:1051E0000120A03188750020DBE70720D9E720687F
:1051F0000021A0308175F6E7084600F028FFD0E7CF
:105200003D4A10B5914206D301229204914204D343
:105210003A4A914201D2102010BD202805D0212801
:1052200003D0222803D0072010BD062010BD084659
:1052300000F042FF10BD70B504462C48CC21AC30C4
:105240000FF03EFD29482A4EAC3000213060C943A2
:10525000A0308183002585770120FEF7FDFD3068B1
:10526000C7210D54E121C57389000182B6210D5477
:10527000014609310830FDF783FF316808460A7A94
:1052800060308271062209310FF0BBFC316808469C
:1052900029311930FDF7ABFF002C37D03068803052
:1052A0008463FEF799FD1E20E081607A8F2108401B
:1052B000303060723068014614312161983161628A
:1052C000933921601031616025721339A162091F81
:1052D000E1628531E163303921631031616311E0AE
:1052E000C0410000C2060000FFFF00004C12002079
:1052F00054000020012A000000600100002000206E
:105300000230000010310930A163A06470BDF7487D
:105310000068C0308079042803D0052801D000201F
:1053200070470120704770B50646F1480C4681422F
:1053300006D301208004844204D3EE48844201D283
:10534000102070BDFFF7E3FF002801D0112070BDD1
:10535000E948E64D002E02D0012E46D12FE02278FA
:10536000002A0AD00121012A09D0022A14D0032AD6
:10537000EDD1A2799209EAD112E0002103E0A279ED
:105380009209032AE3D128680622017260308171F4
:10539000611C0FF036FC05E0A2799209012AD6D1F2
:1053A00028680172002107200CF07CFC2868062286
:1053B000611C09300FF025FCFEF70EFD11E021788D
:1053C000002912D0012910D0022910D00329BED102
:1053D0000120FEF733FF002803D0C849C8480FF06A
:1053E000ACFD2868C673002070BD072070BD012089
:1053F000FEF7F2FEEFE7BF4910B5884201D2102058
:1054000010BDBA49024609680B7A0931184600F006
:10541000F7FD002010BDFFB599B005460020694694
:105420000871087208A90874144608750122B04969
:105430009204B0481E46002D05D08D420BD39542F4
:1054400001D3854207D3002C08D08C4203D3944269
:1054500004D3844202D210201DB0F0BD2846204360
:1054600018D01F270CAB01AA009728461A99FEF7FF
:10547000E0FD0028F0D10DAB02AA3146204600978E
:10548000FEF7D7FD0028E7D16846007AC10703D0B0
:105490000A20E1E70720DFE7800705D568460079A5
:1054A000800701D50B20D7E7FFF731FF002801D097
:1054B0001120D1E703AF002D0FD01A2069460873E1
:1054C0001A9888732946F81C1A9A0FF09AFB0EA9AD
:1054D00003A808F025FA0028BED1002C0ED0202108
:1054E00068460173867332462146F81C0FF089FB2B
:1054F0000EA903A808F014FA0028ADD17B4908A82A
:105500000968007C08700020A6E7F0B504467848DA
:10551000002695B0844276D301208004844202D3D1
:1055200074488442F7D32378012B09D1704960680D
:105530008842F0D39904884202D36E498842EAD364
:105540006A490A681546C035A879022814D003288C
:1055500012D0052810D009280ED00A280CD00B280C
:105560000AD0012803D0002B06D0012B04D0687A82
:10557000C506AD0F06D101E0082012E6850701D46B
:10558000400701D511200CE6208A5E4F0546203DDC
:10559000BD4207D3012B6ED10028FCD1658A002DB6
:1055A000F9D111E0022B01D0032B01D1A02862D345
:1055B000012B01D1002807D01578ED0704D0658AAA
:1055C000002D58D0B42D56D8002B06D0012B08D072
:1055D000022B04D0032BDED118E0002519E00225B0
:1055E00017E0002802D1608A00280DD004256068E9
:1055F000007800280DD001280AD0022808D00328FE
:1056000006D03D48CDE563E00125F0E7032500E045
:105610000126D07B01281CD1108A002819D0907B4C
:105620008109012911D0800904D035483349EC3073
:105630000FF083FC0120FEF701FE00280BD030485C
:105640002E49F0300FF079FC05E00120FEF7C4FD93
:10565000F3E7FEF7C1FB207A002806D0012806D028
:10566000022806D0032806D106E0002705E001271E
:1056700003E0022701E087E00327002D01D0022D7F
:1056800048D1002F46D0E06800287DD0017900295C
:1056900020D0082978D8027B082A75D800290AD09A
:1056A000134B0168994213D301239B04994202D3FF
:1056B000104B99420CD3002A10D080680C498842C4
:1056C00006D301218904884208D30A49884205D2B9
:1056D000102066E5027B002A6AD0DCE703480068F8
:1056E0000078800710D00448401E5AE5540000207E
:1056F000006001000020002002320000C0410000D4
:1057000086080000E13F0000022D03D1022F4FD098
:10571000032F4DD0182168460170218A4180218ACB
:1057200081808571FE480068007A002801D0012838
:105730007ED16946C8716846067221780930012910
:1057400023D006210FF0BAFA07216846C173077407
:1057500009A908F0E5F80028BBD10A2069460870BD
:1057600009A9684608F0DCF80028B2D13A20694659
:10577000087009A9684608F0D3F80028A9D1002DBF
:1057800009D0022D07D04CE012E061680622491CC6
:105790000FF037FAD8E7002F43D00026374623E032
:1057A0000168B00009580978002903D0012904D004
:1057B0000720F6E469468F7002E001216A46917085
:1057C000E16806220968095800A8491C03300FF057
:1057D00018FA0B206946087009A9684608F0A0F875
:1057E0000028E6D1761CF6B2E0680179B142D7D83C
:1057F00000266F4611E08068B10041581022B81CA5
:105800000FF0FFF93B206946087009A9684608F0C7
:1058100087F80028CDD1761CF6B2E068017BB14252
:10582000E9D81B20694608700120887009A900E0AA
:1058300036E0684608F074F80028BAD108A8407924
:105840001B282DD12B000FF069FC0504040606046B
:105850001E00032015E0B2480068C03080790300C4
:105860000FF05CFC091E061E1E0A1E080C0E1E0010
:10587000022006E0092004E0052002E00A2000E002
:105880000B20FEF7E9FA012D0CD0608A002809D020
:1058900000228300114610460CF05FF9002801D069
:1058A00003207EE400207CE470B586B00C00064640
:1058B00009D09C48844248D301208004844202D30A
:1058C0009948844241D3964D2868C030C179022955
:1058D00002D0407A400702D5112006B070BD002CDE
:1058E00004D02046FEF779FB0028F6D13046FEF7BB
:1058F0003FFB012803D0022823D08C48EDE721008C
:105900001BD1082069468882286801ABC08805AA97
:10591000002103F0F7F80028DFD16846808A0828C4
:1059200001D00320D9E7684681888181C188C1817F
:10593000018901824189418203A9304601F068FC56
:10594000CBE7002C01D00620C7E71020C5E770B5D3
:105950000C460546FEF70CFB012803D0022801D0B7
:10596000724870BD21462846FEF7FAFB70BD00B5AF
:105970000146143095B0192801D2880707D008468F
:105980001E3004D00A3002D0072015B000BDFFF74A
:10599000BEFC002801D01120F7E7614831220068E1
:1059A000417068460270817009A907F0B9FFECE701
:1059B00001B582B0022069460880594802AB0068F0
:1059C0006A468088002102F00DFF69460988022995
:1059D00000D003200EBD38B502216A46118052491D
:1059E000884201D2102038BD4D49034609688C8891
:1059F0000021204603F086F8694609880229F2D082
:105A0000032038BD3EB50446082069460880454855
:105A1000844206D301208004844204D34248844255
:105A200001D210203EBD2046FEF7D7FA0028F9D15A
:105A30002088694688806088C880A0880881E088BE
:105A40004881374801AB00686A46C088002102F0EF
:105A5000C9FE694609880829E4D003203EBD1FB568
:105A600004460820694688812E48844206D30120D6
:105A70008004844205D32C48844202D2102004B012
:105A800010BD27480B46006803AAC088002103F018
:105A900039F80028F3D169468989082901D0032003
:105AA000EDE7694609882180694649886180694631
:105AB0008988A1806946C988E180E0E7FEB50E4685
:105AC0001849174605468E4206D30122920416480D
:105AD000964203D3864201D21020FEBD1F2F01D96A
:105AE0000C20FEBD0E4C8D4232D3954201D385422F
:105AF0002ED3206801A9408802F026FE0028F0D1AC
:105B0000287869464871206801A9408802F0FFFDA5
:105B10000028E6D16946009008780221084307E092
:105B2000540000200060010000200020023000002E
:105B3000694608704979090703D008210843694676
:105B4000087020686946408802F08BFD0028C8D1A3
:105B500069460F8120683346408802AA002102F07E
:105B600041FE69460989B942BBD00320FEBD38B564
:105B70000C46F749002801D0884201D38C4201D25B
:105B8000102038BD21886A461180002801D00029E4
:105B90000BD0F049034609684D880021284602F0E1
:105BA000B1FF69460988218038BD0C2038BD30B569
:105BB0000C46E94987B08C4206D3012189048C4206
:105BC00005D3E3498C4202D2102007B030BDE14D2D
:105BD0002968C0310A7A520708D48A79521F130003
:105BE0000FF09CFA05040604040604000820ECE704
:105BF000497AC90901D00D20E7E7FEF7B9F9012874
:105C000003D002282DD0D548DFE720881E2801D2F6
:105C10000720DAE72868C030807906281FD00A20DC
:105C2000FEF71AF905216846017000798108A0780D
:105C30008900C007C00F014368460171FB20014085
:105C4000A0788007C00F8000014368460171218859
:105C5000C18009F072FE0028B7D00320B5E7072005
:105C6000DEE70620B1E7F0B587B014460D46FEF733
:105C70007FF9012804D0022802D0B84807B0F0BD4F
:105C8000B44B18680146C0310A7AD20707D08A7926
:105C9000062A04D9092A02D0002D02D050E008209B
:105CA000ECE7AD4A944206D301229204944204D315
:105CB000A74A944201D21020E0E7A278D206520F00
:105CC000042A0CD8E378072B09D3102B07D82279A4
:105CD0009A4204D3102A02D822881E2A01D0072013
:105CE000CCE702468032966BF727F372966B2379E6
:105CF0003373966B737A3B40A778BF06FF0FFF00A4
:105D00003B437372966B2388F381966BA778B37AC3
:105D1000FF079B089B00FF0F3B43B372FB273B40F1
:105D2000A778966BBF07FF0FBF003B43B372926B20
:105D3000A478537AE406DB08DB00640F2343537234
:105D40000B226B461A70852D22D008DC002D17D04F
:105D5000812D17D0822D17D0832D08D116E0862DE6
:105D600018D0882D18D0892D18D08A2D18D00B2244
:105D70001A71B622125C774C002A13D0A83012E0B8
:105D80000022F5E70122F3E70222F1E70322EFE721
:105D90000522EDE70622EBE70822E9E70922E7E71B
:105DA0000A22E5E7002002908879072806D0082813
:105DB00004D00A2804D00B2802D004E0062000E01A
:105DC0000920FEF749F8684609F0B7FD002801D020
:105DD000032053E720680422C030017A49084900B3
:105DE00011430172002049E770B55A4E0D463168E3
:105DF00086B0C031097A1446090701D408206CE541
:105E0000FEF7B6F8012803D0022801D0534864E514
:105E1000002D10D05048844206D3012080048442D3
:105E200004D34B48844201D2102056E5012D0BD0FB
:105E3000022D02D106E0002C01D007204DE5002004
:105E4000029005E0022000E00120694608710294FA
:105E5000032069460870684609F06FFD002801D0EC
:105E600003203AE53068F722C030017A1140017210
:105E7000002032E570B594B014460E46FEF778F86F
:105E8000012804D0022802D0344814B070BD314D2E
:105E90002868C030007A800701D40820F5E7002C7C
:105EA00001D00720F1E7FFF732FA002801D01120D6
:105EB000EBE7002E1DD02D21684601702C68BC2018
:105EC000015B684641801022B11C01A80EF099FECA
:105ED000207EFB210840B17CC907490F084320768A
:105EE000B07CFF214008A075608A8231084360823F
:105EF00007E02E21684601702868A030818B684633
:105F0000418009A9684607F00BFD2968FD23C031CF
:105F10000A7A1A400A72B8E710B50C46FEF728F85C
:105F2000012803D0022801D00C4810BD0A48844241
:105F300006D301208004844204D30548844201D260
:105F4000102010BD2046FEF722F8002010BD0000F2
:105F500000200020540000200060010002300000FA
:105F600010B594B00446FEF703F8012804D00228C7
:105F700002D0644814B0E9E763480068C030817912
:105F8000042910D005290ED03820694608704C80AD
:105F900001200871487109A9684607F0C1FC002872
:105FA000E8D00B20E6E70020E4E710B594B0044603
:105FB000FDF7DEFF012803D0022801D05148D9E7C0
:105FC00051480068C030817904290DD005290BD0D3
:105FD0003820694608704C8000200871487109A972
:105FE000684607F09DFCC5E70020C3E74648006807
:105FF000C0308079062801D3012070470020704707
:1060000008B51346002806D040A0006800904879E3
:106010006A468009105C18700622581C0EF0F1FDCB
:1060200008BD00B587B0012069460870684609F0D0
:1060300084FC07B000BD10B50446FDF785F9A22128
:1060400001700ECC08300EC0FDF79AF97EE770B5EE
:106050002D4C054601682068002911D02C4A914238
:1060600006D301229204914204D32A4A914201D2DA
:10607000102070BD102277300EF0C3FD2068012182
:106080008030806B01722068A9880182C17B012960
:106090000CD1807B800901280AD00120FEF7CEF8C0
:1060A000002803D01C491D480EF047FF002070BD9A
:1060B0000120FEF791F8F3E770B505460068124C31
:1060C00000281AD01349884201D2102070BD2068E0
:1060D000B8210958097A012909D0014677312930B8
:1060E0000AF063FF206801218030806B0172216813
:1060F0001022286877310EF084FD2068008AA8807D
:10610000002070BD02300000540000200302FF0197
:106110000060010000200020C041000003030000D7
:10612000FFB581B001980E46C078174610360E377D
:10613000022809D0032840D005287DD0F2A1F748D5
:106140000EF0FBFE05B0F0BDCC890A2060430E3096
:10615000188031230A98002A0380F3D04868008809
:1061600090800020D0801081097B9481891FCDB25E
:106170001AE030887168388048780A780002104345
:10618000F880C8788A78000210433881BA1C091D4B
:1061900028460BF058F8002D01D0002802D000202E
:1061A0003871788008360A372046641EA4B2002869
:1061B000DFD101990020C870C4E7CC890A20604370
:1061C0000E30188032230A98002A0380BAD048681B
:1061D000002500889080D5801581087B401FC0B2C3
:1061E0000090948142E0716832880878FA803A79A8
:1061F000C30752085200DB0F1A43FD231A408307DE
:10620000DB0F5B001A43FB231A404307DB0F9B00A5
:106210001A43F7231A400307DB0FDB001A43EF236F
:106220001A40C306DB0F1B011A43DF231A40830603
:10623000DB0F5B011A4300E020E0BF231A40430656
:10624000DB0F9B011A433A71C00978718A784B7849
:106250001002184338813A46C91C00980AF0F3FF2F
:10626000002801D0BD703D8008360A372046641EE4
:10627000A4B20028B7D10198C57063E7087BCC8928
:10628000801E85B2284608306043103018803423C1
:106290000A98002A03808FD04868174600889080AB
:1062A0000020D080108194811037E000D581C01982
:1062B0000CE030883880009878602A467168009831
:1062C0000EF09FFC009808360837401900902046D1
:1062D000641EA4B20028ECD16BE7FFB50546C07878
:1062E00081B00C460A9E03000EF018FF0BA307179F
:1062F00033414F6D8F9D9D9DA300207B174608283D
:1063000006D0032804D085487FA154300EF015FE36
:1063100004990E20088030200CE0207B17460428CA
