:400000000010002011000000D5200000D520000008B502F061F80000F7B572B6844C854B0122261C1A701836251C62792379607812021A43237800021843A37800211B0488
:400040001843E37806341B06184302F0B6FDB442EBD1291C18318022774802F0A5FD774977481831802202F09FFD0023191C754C221C183298584034C2B20192071CFF22F2
:4000800097434A00A4180022019ED5B2AE4209D05500665D6519B446BC446D78664635700132F1E7C0B204330918282BDFD1664B60221A60654BEE2212021A60644BEE22F7
:4000C0001A60644BA5221A60634A644B64491A60644B78221A60644A644B80201A60644B13221A60634BF0221A60634B902292021A60624BC0221A60614B02221A60614BD4
:4001000040041960604B0F2119606049604B0C241960604999231B040B605F4908605F495F480B608021C90201605E4803605E4803605E4BC020800218605D4B0520186051
:400140005C4B187802431A705B4A1078A0430424204310701A78162002431A70574AC4231370574A1370574A1370574A1370574A1370574A1368141C1943564B11601878E2
:40018000554BC0B21978554BC9B21A782F2A05D9534A58789978033B9342F6D1514B1860514B05201960514B1A78514BD2B21A6002F026FC4F4B35221A604F4A4F4B1A601E
:4001C0004F4B20221A604F4B10221A604E4B11221A604E4B31221A604D4B21221A604D4B30221A604C4B822212061A608023DB0223604A4A4A4B1A604A4A4B4B1A604B4B51
:400200004B4A13604B4A13604B4B4C4A13604C4A13604C4B822252001A604B4B0222FF321A604A4A4A4B1A604A4A4B4B1A60F7BDDC3000001C700F4080320F405C3100002A
:4002400000310F40DC310000040001400C00014010000140000004402E0D970008000440A04D000000010440800DD20008010440180104400002044008020440180204407F
:40028000000304400803044000040440A40D00000804044000500F4008500F4010500F4018500F4020500F4030500F4038500F402000004000700F4001700F4058300F4098
:4002C0005A300F40D8300F40DA300F40DB300F4000010B40CCF1FF0FCDF1FF0FC9F1FF0FBDF1FF0F1CFF0B4020FF0B40FDF1FF0F28FF0B402CFF0B400600008004010B402A
:40030000080202400C0202401C02024020020240240202403002024008010B40040000800000024005000080400002400F00008080000240040002402F0000804400024094
:400340008400024080001040880010404C80020000031A40CC00020040031A4010B5064C2378002B07D1054B002B02D0044800E000BF0123237010BD0001002000000000E7
:40038000CC2B000008B5084B002B03D00748084900E000BF07480368002B03D0064B002B00D0984708BDC04600000000CC2B000004010020C800002000000000024B0122D7
:4003C00052421A607047C0461C01002037B50B4901906B4668460A6805330A300133834209D09C1E24786240D5B2054CAD002C59120A6240F2E70A6037BDC0461C010020D5
:40040000D02B00000A4B37B51A68C4B25440FF21251C084A0D40AD00AD586040000A6840014089008A58000A5040186037BDC0461C010020D02B0000014B1868C04370477A
:400440001C010020004870470C06002000207047012070470120704701207047024B0133D87F8007C00F70470C060020024B0133D87F0123184070470C0600200020704784
:40048000012070470120704701207047012070477047704770477047704770477047000010B5084B01240133DA7F00202243DA7702F0F2F9201C02F0E3F9322002F08AFA8C
:4004C000201C10BD0C06002008B5084B02210133DA7F0A43DA77002802D101F087FE02E0002001F08FFE012008BDC0460C06002008B5084B02210133DA7F8A43DA7700284E
:4005000003D1012001F072FE02E0012001F07AFE012008BD0C06002008B58020034B012280001A7700F0CEFF08BDC0460C06002008B58020034B012280001A7700F0C2FFB8
:4005400008BDC0460C06002008B58020034B012280001A7700F0B6FF08BDC0460C06002010B50C4B01220133DC7F144094420FD1DA7F0020A243DA7702F082F9201C02F0DB
:400580008BF9E120400002F025FA002002F084F9012010BD0C06002000487047D02F000001481C307047C046D02F0000014844307047C046D02F0000014858307047C04660
:4005C000D02F0000F8B5FFF7EBFF00F09DFEFFF7EDFF00F09FFEFFF7DFFF00F0A1FEFFF7EBFF00F0A3FEFFF7DBFF00F071F9FFF7DDFF00F073F9464802F0C6F862B600F003
:400600009BF800F00DFA00F0C1FF002000F06CF9012000F069F901F0C9FE022001F0CCFE3C4C002323602568012DF4D8281C01F0E3FE011C281C01F0F7FE374B984202DDB6
:4006400023680133EEE72368344C002B01D1012300E00023237000F02FFC00F0F9FE002000F060F9012000F05DF924780120002C08D102F0A9F8012002F09AF8201C01F02B
:40068000C1FD07E001F08EFF012001F07FFF002001F0ACFD1E2002F09DF921490822002001F0E2FB01F04CFC01F0F4FB00F004FF01252842F8D01B4B1B78002BF4D100F048
:4006C0008FFA071C00F08CFA02680724120B164E224092000432391C301C02F065FA00F07FFA0168301C090B21408900043101F01BFC00F075FA01689020090B0C40A100D4
:40070000043101F0F1FB281C00F038FFCCE7C0462908000094060020520300008C060020801A06000005002030060020014B18787047C0468C0600200023034AFF21D15476
:4007400001330A2BF9D1704720010020F8B500241B4BE5B21E5D86421CD001340A2CF7D19D7A0024092D29D80C2565435D19AF7DE6B21435002F08D118550120A870987A90
:400780000130C0B29872301C05E001340A2CEBD1002413E0281C0C2460431B181819094D0124D96041605C7528791A75C0B2002804D101F09BFF01F0BFFF2C71201CF8BD15
:4007C00020010020A001002008B50122FFF7BEFF08BD000000230A4AD15C814203D001330A2BF8D10BE00C2159430020511848758875FF21D154937A013BDBB29372704765
:40080000200100200023074AD15C814204D001330A2BF8D1002004E00C214B43D218507DC0B2704720010020F8B5012001F092FF0024251C0C2161431E4B5A18161C143650
:40084000707801282CD10C325068013850605568002D1AD1184F185D7F183F7AC0B2012F08D1FF227570B5701A559A7A013AD2B29A7202E0104D4B595360142807D8802342
:400880001B018340181C00F01DFE012508E01928FBD901251A382F1C8740381C00F010F801340A2CC6D1002D03D101F011FF034B1D71F8BD200100202C010020A00100203D
:4008C000024B9A68104398607047C046A8010020014B18607047C046A8010020014B58607047C046A801002010B50D4C002808D101F05EFF012001F067FF02232374A3744C
:4009000008E0002001F042FE012001F04BFE02236374E374A28980239B011343A38110BDA801002010B5041E05D101F04DFF201C01F03EFF05E0002001F034FE002001F0B9
:4009400025FE10BD3C235843014B18187047C0464430000000207047024B0633D87F8007800F7047C4010020024B0533D87F80097047C046C4010020F0B5284B85B0019095
:40098000586A0024C003C00EFFF7DCFF437802905B075B0F0393251C039FBD4231D2FF232B41D8072BD5029FA90079181B4B096AA200D1509E18F17889091FD1D05A019F0C
:4009C0008105890DB9420ADDB905800A890D80020843D052B37830229343B3700EE0B778BB069B0F0AD06E204843642102F054F80199884202D930239F43B7700134013572
:400A0000CAE7064B0722083314402201DC7F70218C431443DC7705B0F0BDC046C4010020F7B5FFF797FF051CFFF78CFF1F232E4C1D402D036562631D0578021CD87F0321A7
:400A40000D4088432843D877157801206D07ED0F061C2E40DF7FB60001960426B743BC46019E0D40AF0165462E433F252E403E43DE771778F6B2CF400F40FD001827BE43F3
:400A80002E43DE771678DD7FB606F60FF7B27F0101972027BD43019F0E403D43DD77A31DDF7F3F258F433E43DE771178E31DDE7F8909354089010D43DD7751780834E37F4F
:400AC0008909014083430B43E37753780222DB0918404300E07F90431843E077FA204000FFF74AFFF7BDC046C4010020144BF0B55C8819881F2260404D090A400024860572
:400B000000D5104C061C5C809640AC00162A08D8002A01D1181942601C1967683E4366600AE01C19676801353E4366602024AD00A21A5D19D04068600A311980F0BDC046DD
:400B4000F4010020FF03000070B5031C0F260C4C33405B00051C185BFFF7C8FF2B0933405B00185BFFF7C2FF2B0A1E4076002D0B305B6D00FFF7BAFF285BFFF7B7FF70BDFE
:400B8000803000000C4B0D491A7808780C490D4B0978013318185918C07FC97F9A18D27F0902000108431043074A12789B18DB7F1B0318437047C04653000F4052000F402E
:400BC00051000F408030000050000F4008B5034B0120186000F048FC08BDC04630010540014870307047C046F4010020014B187CC0B2704774020020014B587CC0B270474A
:400C00007402002008B5FFF7A7FE074B012801D1064A01E0E12292001A60002001F0F4FC01F006FD08BDC046140105405203000010B50E4A012311780324994311700C4927
:400C40000868A043086008680A4C204308600A480421016003600948002444748474107818431070064A1160136010BD72000F40080010400208000080E200E07402002069
:400C800000E100E008B5FFF7D3FF08BD70B5474C0123A07C6374052800D985E001F0F2FE033147546E74424B1978424B09021B781943414B09021B781943404B09021B7809
:400CC000194300233E489A0040301258914202D00133072BF6D13B4D1A042A675A1F012A03D8FFF7A5FF281C5BE0072B02D1FFF79FFF59E0D8B200F027FB0123002841D10E
:400D0000F5E7FFF73FFF2F4B051C1A6F02431A67FFF754FBA8B26D046D0F6D00FFF772FBE574E37C002B25D00123636124E06569FFF728FF234BAD005D19E37C2867013BF3
:400D4000DBB2E37403231DE062691E4D9300ED182E6FFFF717FF000430432867FFF736FB636901336361E37C013BDBB2E374E37C002B01D1042305E0022303E0FFF702FF1E
:400D80000523A061A3740FE0A669FFF7FBFE05043543A561FFF74CFFFFF74EFB854203D10848703000F096FB70BDC0467402002053000F4052000F4051000F4050000F40A8
:400DC00080300000F401002038B52B4CA28BE38BD31A2A4A11681AD00F220A4008218A1A934205D8264A01201168814311601A1CE58B0023E91888B2934206D021490133E5
:400E00000818007920490860F4E7E1832EE0FFF78DFC1E4B196800280ED11D4A0F200A401A601C4B07221968914319601A4B19688143196019680FE0184A0A401A60184BB7
:400E4000184A19680A401A60174B184A19680A401A601968E022D2020A431A60FFF7E8FE134B802212011A6000232374114B012252421A6038BDC046740200200802074012
:400E8000880F0740F401002040020740080204403FFEFFFF080304400C000140FFF1FFFF08000440FF8FFFFF00000140FFFFF0FF80E100E0800F074010B5324801F0DCFB7F
:400EC00001F07CFB304B01241C7001F0DDFAFFF72DFC2E4B1968002810D12D4A0F240A401A602C4B07221968914319602A4B1968A143196019680A431A6012E0274A201C5E
:400F00000A401A60264B274A19680A401A60264B264A19680A401A601968E022D2020A431A6001F0BFFA01F049F9214B03211A6820488A431A601A681F490A431A6001F042
:400F4000EBFC1E4B802212011A6001F0E1FA1C4B8022196812060A431A601A4B20221978194811431970194B19780A431A7001F0BDFA174801F0AEFC164B00221A749A74BA
:400F80005A7410BDCD0B000001060020080204403FFEFFFF080304400C000140FFF1FFFF08000440FF8FFFFF00000140FFFFF0FF08001040C90D00000208000080E100E005
:400FC0000000074091000F408D0C000093000F40850C0000740200200A4A0123117899431170094A042111601360084A11601360074B00225A74074B074A19680A401A600E
:401000007047C04672000F4080E100E080E200E07402002008001040FCF7FFFFF7B5051C0E1CFFF7CBF94C4C4C4B280C6360A360E36023614A4B63808023238006283BD830
:4010400001F020FD04262E3A3A0F1B004548FFF74DFD4448FFF74AFD4248FFF747FD424828E0D520FFF742FDD520FFF73FFDD520FFF73CFD4E20FF3043E0D520FFF736FD2D
:401080003848FFF733FDD520FFF730FD374838E03448FFF72BFD3348FFF728FD334806E03048FFF723FD3148FFF720FD2D48FFF71DFD2E48FFF71AFD2D042F0C381C6D00FB
:4010C000FFF742FD6D0F381CFFF79CF901950025019A95420BD037680135B8B2FFF734FD380CFFF731FD01CEFFF770F9F0E7FFF7A3F9051C80B2FFF727FD280CFFF724FD3B
:40110000AD20FFF7F3FC21881F224B090A4002D19800201842606088002815D198001F2A0BD120184568802212062A43013342609A00A2180120506006E00325201895405B
:401140002A1C45682A43426001339B00E318002203315A602180F7BDF4010020B4B4B4B4FF030000B3020000CD0200002B03000038B501F033F80624051C01F02FF8A8424F
:4011800004D1013C002CF8D1201C00E0012038BDF8B5FFF7EDFF012806D0494C237C012B02D0637C012B19D116200321FFF70CFBFFF7DEFF01280BD0414B1A7C012A07D0EF
:4011C0005B7C012B04D01620FFF704FB002075E01620FFF717FB0128EAD0F4E7FFF7FCFE384B80210122090122741960364B8021186849020143196018683449344D0140C3
:4012000019602B880733DB10A38372B6314E2B793360E283FFF78AFA2F4B002815D12F4A072011680F278143116018682C49014019602C4908683843086011680620014314
:401240001160C0221968520016E0274A274910680140116018682649014019602549F0200F680003384308601068C021C901014311601968C02212010A43E78B1A60002319
:401280001D49FA1808680F2192B201408B4204D2AA18127901333260F2E7E28362B6174B41211A68012252421A60154B01201A680A431A608022134B12011A60F8BDC046FC
:4012C0007402002080E100E004020740FFFFFEFFF40100204002074008020440080304403FFEFFFF0C00014008000440FF8FFFFFFFF1FFFF0000014008020740800F0740DE
:40130000880F074000E100E0014B98607047C04694020020014BD8607047C04694020020014B18607047C04694020020014B58607047C04694020020024B3D3318788006DF
:40134000C00F70479402002001207047F0B587B002900591151C1F1CFFF748FC0128FBD0FFF74AFC0128F7D029040391029940223B030A4313430493032301932D4C002600
:401380006572B54207D1FFF7E7FA061CFFF7ECFA36024001064303236B43E05C0499039B40020843184330430599FFF737FE0023A372FFF7EDFE01282BD1FFF717FC012811
:4013C000FBD0FFF71FFC1B4E00237373341C637B002B02D1A37A002BF9D001F007F9B37A012B0DD10023237303235D43635D0722013302991340635501200D2917D103E0D6
:40140000337B012B05D1EDE7002F10D16519AF700DE0084B187BC0B2012802D100221A7305E0019B013B0193002BA7D1022007B0F0BDC046D80200200323584303490023E1
:401440000A185370435493707047C046D802002008B50020FFF7F0FF0120FFF7EDFF0220FFF7EAFF08BD0000014B58737047C046D802002038B500230404984207D1FFF71D
:401480006BFA051CFFF770FA2D0243012B43074A0021D07A4122400210430443201C1843FFF7BCFDFFF774FE38BDC046D802002008B5FFF74BFF08BD014B18697047C0467B
:4014C000D8020020024B1A69104318617047C046D8020020F7B502680721570A0F40264B8C460F21150C1140061CDF72E8B200911C1C01290ED1120B61460A420AD15A7A2E
:4015000003245443E45CBC4235D1904233D1009A9A7230E0042825D8FFF7ACFFFFF70CFF012828D0326853045B0F08D10F210A400D2A04D1EAB203214A43A2189370EDB2CE
:4015400003236B43E3189A78002A03D05A78E37A9A4210D003235D4301206519A870E37A6B7006E0052806D1FFF7E6FE012802D00820FFF7A7FFF7BDD8020020024B1A69EC
:4015800082431A617047C046D802002008B500F0FFFE01F057F92B2001F062F901F058FA08BD01207047C0208004704708B501F005FAFEE7014B18707047C046EC02002086
:4015C000314B8200D3583C225043304AF0B51018DA6E03252E4CAA43DA661A591A218A431A51F42212019E5831432A4E99509F5901218F439F51F82636019F590F439F512E
:40160000254E9F598F439F51FC2636019F590F439F511F59214E3E401E519E580224FF3434439C50812292009C580726B4439C509C5825439D509C5880256D022C439C507F
:401640009F58174C27409F50C12292009F58B7439F509E5805273E439E509E5835439D509D582C409C501C6E0E4A22401A6600234360037543758375C37503764376836A23
:4016800001728B438362F0BD3C300000F0020020480F0000880F0000C80F0000FEFEFFFFFFFFFEFFFFDFFFFF70B53C244443104B1C19A26A0E231343A3620E4B8200D55807
:4016C000A66B2B685B005B082B60FFF779FF012323722A6880231B0613432B600422631D201CDA772430B04700232363636370BDF00200203C30000038B53C2444430C4BDC
:401700008200D3580B4A02211419DA6EA56B0A43DA66631D0422DA77FFF752FF0123201C23722430A84700232363636338BDC0463C300000F0020020BB4BF7B58200D658B2
:40174000BA4A8027B3587F00041C1F4020D03C254543B74B5D19A86A16230343AB623368AF6B5B005B083360201CFFF729FF01232B72326880231B061343336004226B1DB0
:40178000281CDA772430B84700232B636B6347E2B35801252B4216D03C264643A44B9E19B26A26231343B16BB3620191FFF708FF731D0422301C35722430DA77019CA04737
:4017C000376377632CE2B158022319424DD03C254543974A5519AF6B06220197297A114237D08220984031580F2211402A7D94466746AA6A012F13D1E87D8446674628696A
:40180000002F09D1072907D002D9013868630EE0C32368635B000BE013436863AB6209E0335868681B04DB0FC918411A6963814B1A43AA626B1D0422DA77201CFFF7C0FE2D
:401840000123281C2B722430019CA04700236B6301E0FFF729FF784B1021F2588A43F250F4231B01F2580221D8E174497158294050D03C2343436E4AD318197A0A2211424C
:4018800044D008221A72C2229200B1580F2211401A6BD8688F18B84201D2811A5D7500201A6B884209D0D025AD0075591F6A0130BD541A6B01321A63F2E7D868821A0CD06E
:4018C000082A25D8C1239B00F15807208143F150F158013A0A43F2501AE05A7D002A0DD1316E574A07200A403266C1229200B1588143B15001229A755A7509E0996A514AC5
:40190000201C0A439A62FFF7F7FE01E0FFF7CCFEFC2384E0B7580820074234D03C236343434AD318187A0A2210421FD0C2229200B0580F2210400A1C196B824209D0D025D8
:40194000AD0075591F6A01327D54196B01311963F2E7D8689A6A814201D1022100E03A490A439A62201CFFF7C7FE02E0201CFFF79BFE314B1021F2588A43F250F4231B01CF
:40198000F25808214AE131497158294260D03C236343274AD318197A062211423BD004221A725C681A69111B82229200B45800291CD00F222240821A914209D8812292009D
:4019C000B0580724A043B050B0580543B5500A1C0021914222D05F68DD699020EC5D800034505868013101305860F2E71A7D002A02D11D75082306E0986AC22252000243FE
:401A0000DD759A62F6E79022FF219200013BB150002BF8D102E0201CFFF746FEF8231B01F2580121FAE0C0463C3000004C0F0000F002002046020000480F0000CC0F0000B8
:401A4000FFDFFFFF86040000460800008C0F0000B1584F0600D4BDE03C256543714A724F5519A96BF4221201B05801910221FF310843B050F0590143F151B058102108438D
:401A8000B050F2590A43F2512A7A012A00D099E0706E08408446691D281C009161462C3000294CD0009B02700199DA7708388847012836D1297E012939D12A69082A09D8E8
:401AC00081239B00F0580724A043F050F0580143F15000E00822002393420AD06968EC690133605C902189007050696801316960F2E7F4231B01F15802221143F150F35932
:401B0000F8211343F351090170580123184370504649705818437050A96A2A721943A96244E0002803D1424BAA6A134302E0414BAF6A3B43AB62201CFFF7DEFD45E0009A64
:401B400061460170281CD3772430019B9847AA6A01282FD16B7E012B30D1E968082909D8C1239B00F0580724A043F050F05801390143F150FC2109017058012318437050F0
:401B80002D491A43705818437050F4200001345808210C433450F0590143F151AA6202222A72316E802292010A433266F26E1343F3660AE0002801D11D4B00E01F4B1A437C
:401BC000AA62B8E7201CFFF76FFDF4231B01F258402123E0B1581022114221D03C2767431049CF19B86B0190397A19420FD0B96A46230B43BB6204227B1D201CDA77FFF715
:401C0000DFFC381C3D72019C2430A04708E0064BF1589143F150F4231B01F1580A43F250F7BDC046F0020020480F0000880F00000620000006500000C80F000006900000A9
:401C400008B50020FFF778FD08BD0000F8B5314B8200D4583C2343432F4A051C2F48D3180022226020670879FE2618700879360440000643C4208000265029480326206609
:401C8000812080002650265880277F023E4326502658371C234E37402750C1208000052727502758BC46802766467F023743275027581C4E3E4026501B4E8020800026509A
:401CC0001A4EC0208000265001261E729A621A635A635A601A755A759A75DA751A765A768968281C996300F0C1F9226880231B06134323600E4B4022E2500E490A2000F083
:401D00002FFE0A35371C0C4AD123AF401B02301CD750F8BD3C300000F0020020AA0E020288080040FFFFFEFF0701008007030080480F0000411C0000001000E03C235843B1
:401D4000064B30B51B189D6A01240020254203D11961DA611C76201C30BDC046F00200203C235843064B30B51B189D6A01240020254203D1D9601A625C76201C30BDC0464B
:401D8000F00200203C235843034B1818826A0123134083627047C046F002002070B50478022C04D0042C30D0012C55D118E02B4C23786078002B09D0FFF7E4FF6078A21C07
:401DC0000121FFF7CDFF0123E37006E0FFF7DAFF6078221D8421FFF7C3FF0322204B36E01F4D00202B7A022B37D11C4E7078FFF7C9FF6B7A1B4A80214900C91A9A18707892
:401E0000FFF79CFF04232B7226E0027A144B002A16D1197A03291CD1C4681049012C0AD1C878002803D08878CA70587201E00A795A7202220BE00120013C08709C7209E0D7
:401E4000012A06D1197A042903D1002159721A7202E00120187200E0012070BD68030020E8030020000400201FB501AB1A71064A01910392054A01215070054A1172191C25
:401E8000FFF7E4FE05B000BD9D1D000068030020E803002010B5064C2378002B07D0054B20799A7A611D00F09FF80023237010BD68030020E803002070B50A4C0D1C061CF3
:401EC000111C201C2A1C00F06FFEAB080F20211C321CFFF7EDFA0C23012800D10223181C70BDC046B406002008B5074B1A1C7E3210701A1C7F3211700449012200200A7016
:401F00009A7100F0B3FD08BD000400200005002008B5031C03480A1CC030191C00F044FE08BDC0460004002008B5031C03480A1C8030191C00F038FE08BDC046000400200E
:401F400010B5FFF730FB084C030A20706370030C000EA370E070FFF724FB002120718020FFF7C2FF10BDC0460004002008B5007801280CD1064A0023111C7E310B70937119
:401F8000111C044A7F310B70137000F06FFD08BD000400200005002010B503780B24522B05D143780224012B01D1FFF7FFFA201C0021FFF799FF10BD08B503784A2B02D1C6
:401FC0000120FFF7F7FA08BD08B5031C007803221040044A5978C032FFF76EFF0021FFF783FF08BD0004002008B5031C081C111C122B18D008D8072B12D0082B0DD0062BCE
:4020000030D1FFF7B3FF2DE0282B13D0C02B27D0202B27D1FFF7D8FF24E0FFF7BDFF21E0FFF7CAFF1EE00120FFF706FA0220FFF703FA17E00378072B05D10B4B187800289A
:4020400008D0002009E0082B0CD1074B01201B78002B02D100F0D6F804E000F0C7F801E0FFF756FF08BDC0468C060020124B8000C358124A00219950E82001225242000153
:402080001A500F481950EC2000011A500D481950F02000011A500C481950F42000011A500A481950F82000011A5009481950FC2109015A507047C0463C300000880E000082
:4020C000C80E0000080F0000480F0000880F0000C80F0000FEE7000070B51049104B01394A1C15D01E685C689D680022A018AA4203D0B058A0500432F8E7DC68021C151A65
:40210000A54202D0002520C2F9E710330139E7E700F024FDFEF756FAFEE7C04601000000A434000008B500239A00032B02D80A49895800E009490A4801338150302BF3D13C
:40214000FDF76AFF074B00221A608023DB051A6801210A431A6008BD00000000D520000000000020C0000020002806D0012809D1054BE0221968D20202E0044B07211A68E9
:402180000A431A607047C046000001400C000140002806D0012809D1054B064A19680A4003E0054B07211A688A431A607047C04600000140FFFFF8FF0C000140054B80224B
:4021C00012061A60044B50221A601A6820210A431A6070470000104008001040024B1868C003C00F7047C0460C001040044B0422196880009143C9B202400A431A6070472C
:4022000000000440044B7F2219681140C201081C1043C0B21860704700000440F8B50E20002100F0A9FB39490E2000F099FB384B07221A60374A384B00241A60374A384BE9
:40224000384E1A60384A394B394F1A60394B3A4A1C603A4B13603A4A13603A4B80221968520211431960384B19680A431A60374B112234603C601A60354B02221A60354B52
:4022800001211A680A431A60334BA500181CE958DC2210309201205C0A4002439446032C13D02E4AA818624602600122114203D03168A2400A4332605A5992070AD53968A2
:4022C0000122A2400A433A6004E08021C9050A4323490A6080215B594900081C9A0501D48020400119401F4A6300002900D00021D1521D491D4B4843C01800F0CDFB1C4BB3
:4023000001345851042CBFD1F8BDC0467D24000020001A407020001100001A40AC000A8004001A4028021A400000FF0718001A4038021A401C001A4010001A400400040022
:4023400014001A4000031A4040031A4018021A40000F1A4030001A406C34000080001A4080021A40E00600201027000088130000D006002008B5054B8022196812060A43D5
:402380001A600A2000F03CFB08BDC04600001A4010B5054C2378002B03D1FFF73FFF01232370FFF7E7FF10BD00060020014B01221A60704724001A40031C10B500209A0700
:4023C00006D00C490122086810400FD19C07F8D40C2213420DD0074910220C6814402043104206D01C07F6D40A6002E00A60101CEEE710BD10021A4008B5032803D900208A
:4024000000F0DAFA06E0032804D0054B8000C018006801E0034B186880B200B208BDC04680011A4090021A4038B5041C0D1C032802D9002000F0C0FA0D4B6200D15A0D487E
:40244000691A09B248430C4BA400002904DD1959CA0F5218521004E01959CA0F5218521052421959801800F017FB00B238BDC046E006002010270000D0060020014B1A682E
:402480001A60704710021A4008B50020FFF780FE0120FFF77DFE024BFF221A7008BDC046CC00002038B5064B041C18781D1CFF2801D0FFF76DFE201CFFF756FE2C7038BD56
:4024C000CC00002038B5041C00F043FA054B06491D68A2052C1C0C4014431C6000F03DFA38BDC04600E400E0FFFF3FFF054B10B504241C60044B98640120FFF7E3FF034B17
:402500001C6010BD80E100E00000002000E100E00F4A104B07211A600F4A104B1A60104B104A1360104A1160104A1360104B04221A60104A002313600F4A13600F4A136069
:402540000F4A13600F4A13600F4B41221A6070470F0000010000074001000080200007400700008000030740040307400002074004020740880E0740C80E0740480F074049
:40258000080F0740C80F0740880F0740044B2022196840019143C9B202400A431A60704700000440044B4022196880019143C9B202400A431A60704700000440064B812221
:4025C00092041A60054B0C221A60054B01221A60044A054B1A6070470001054024010540380105404C0400001401054008B500F0B0F9044B01211A688A431A6000F0ADF919
:4026000008BDC04600000540014B80B2186070470801054038B50C1C051C00F09AF9034BA5401D6000F099F938BDC0460800054010B500F08EF9064B01241A6822431A6049
:4026400000F08BF9201C1821FFF7E4FF10BDC0460000054010B5041C00F07BF9054BA2011968C024A1430C1C14431C6000F075F910BDC04610E400E010B5064B80246402DB
:402680001C60054B0433D8670320FFF7E3FF034B1C6010BD80E100E00000002000E100E0074B802292041A60064B1D221A60064B01221A60054BFA2292001A607047C046F3
:4026C0004001054064010540780105405401054008B500F03EF9044B02211A688A431A6000F03BF908BDC04600000540014B80B2186070474801054038B50C1C051C00F09E
:4027000028F9034BA5401D6000F027F938BDC0460800054010B500F01CF9064B02241A6822431A6000F019F9201C1821FFF7E4FF10BDC0460000054010B5054C2378002B8A
:4027400003D1FFF7ADFF01232370FFF7E3FF10BD02060020014B18607047C0467001054038B5041C00F0F5F8054B06491D68A2032C1C0C4014431C6000F0EFF838BDC0463C
:4027800010E400E0FF3FFFFF10B5064B8024A4021C60054B0833D8670320FFF7E1FF034B1C6010BD80E100E00000002000E100E0044B012219689143C9B202400A431A6066
:4027C0007047C04600000440044B0222196840009143C9B202400A431A6070470000044010B500F0B6F8094A094913681360094B1C682140196014688621C90021431160E8
:402800001A681A6000F0A9F810BDC04608000840FFFFFEFF0400084008B500F09AF8074BC022196892000A431A60054B8022196812060A431A6000F090F808BD0800084075
:402840000400084010B5054C2368002B03D1FFF7C7FF01232360FFF7DFFF10BD0406002010B5041C00F075F8044BFF211A688A4314431C6000F071F810BDC04608000840EF
:40288000044B7F2219681140C201081C1043C0B21860704700010440044B08221968C0009143C9B202400A431A6070470000044010B5041C00F04DF8054BA2011968C024B7
:4028C000A1430C1C14431C6000F047F810BDC04600E400E0054B10B501241C60044B18640220FFF7E5FF034B1C6010BD80E100E00000002000E100E010B5041C00F029F807
:40290000044BA4071A689200920814431C6000F024F810BD08E400E010B5064B802424011C60054BD8660320FFF7E6FF034B1C6010BDC04680E100E00000002000E100E0D1
:402940000230800804D0C0460138FDD1C046C0467047EFF3108072B6704780F3108870471F2800D901BE034A80008318186819607047C0464000002038B5041C0D1E032D21
:4029800000D901BE1F2C00D901BEFFF7E2FFA308084A9B009B1803221440944019680634A2409143A5400C1C2C431C60FFF7D5FF38BDC04600E400E001BE7047034B04492A
:4029C0001A6892B20A431A607047C0460CED00E00400FA0510B5041C8022074B1202944205D91868FFF7ACFF044BE418F4E758686043FFF7A5FF10BDD00000200080FFFF91
:402A000008B5034B1B7A5843FFF79AFF08BDC046D0000020054B802212061A60044B50221A601A6820210A431A6070470000104004001040044B03211A688A431A601A68AF
:402A400002490A431A607047040010400208000008B5054B1A68002A03D101221A60FFF7D9FFFFF7E7FF08BD08060020044B0422196880009143C9B202400A431A607047E3
:402A80000004044002B4714649084900095C49008E4402BC7047C046002941D010B4041C4C40A44601230022002900D54942002800D5404288422CD301242407A14204D218
:402AC000814202D209011B01F8E7E400A14204D2814202D249005B00F8E7884201D3401A1A434C08A04202D3001B5C0822438C08A04202D3001B9C082243CC08A04202D345
:402B0000001BDC082243002803D01B0901D00909E3E7101C6446002C00D5404210BC7047002806D003DB0020C043400801E08020000607B4024802A14018029003BDC04663
:402B4000190000000029EBD003B5FFF7A7FF0EBC4243891A1847C0467047C04670B50E4B0E4D0024ED1AAD101E1CAC4204D0A300F35898470134F8E700F082FC084B094D3B
:402B80000024ED1AAD101E1CAC4204D0A300F35898470134F8E770BD8C3400008C3400008C3400009434000010B50023934203D0CC5CC4540133F9E710BD031C82189342DC
:402BC00002D019700133FAE7704700000000000000000000963007772C610EEEBA51099919C46D078FF46A7035A563E9A395649E3288DB0EA4B8DC791EE9D5E088D9D2974C
:402C00002B4CB609BD7CB17E072DB8E7911DBF906410B71DF220B06A4871B9F3DE41BE847DD4DA1AEBE4DD6D51B5D4F4C785D38356986C13C0A86B647AF962FDECC9658A04
:402C40004F5C0114D96C0663633D0FFAF50D088DC8206E3B5E10694CE44160D5727167A2D1E4033C47D4044BFD850DD26BB50AA5FAA8B5356C98B242D6C9BBDB40F9BCACC4
:402C8000E36CD832755CDF45CF0DD6DC593DD1ABAC30D9263A00DE518051D7C81661D0BFB5F4B42123C4B3569995BACF0FA5BDB89EB802280888055FB2D90CC624E90BB184
:402CC000877C6F2F114C6858AB1D61C13D2D66B69041DC760671DB01BC20D2982A10D5EF8985B1711FB5B606A5E4BF9F33D4B8E8A2C9077834F9000F8EA8099618980EE104
:402D0000BB0D6A7F2D3D6D08976C6491015C63E6F4516B6B62616C1CD83065854E0062F2ED95066C7BA5011BC1F4088257C40FF5C6D9B06550E9B712EAB8BE8B7C88B9FC83
:402D4000DF1DDD62492DDA15F37CD38C654CD4FB5861B24DCE51B53A7400BCA3E230BBD441A5DF4AD795D83D6DC4D1A4FBF4D6D36AE96943FCD96E34468867ADD0B860DA43
:402D8000732D0444E51D03335F4C0AAAC97C0DDD3C710550AA41022710100BBE86200CC925B56857B3856F2009D466B99FE461CE0EF9DE5E98C9D9292298D0B0B4A8D7C703
:402DC000173DB359810DB42E3B5CBDB7AD6CBAC02083B8EDB6B3BF9A0CE2B6039AD2B1743947D5EAAF77D29D1526DB048316DC73120B63E3843B64943E6A6D0DA85A6A7A2B
:402E00000BCF0EE49DFF099327AE000AB19E077D44930FF0D2A3088768F2011EFEC206695D5762F7CB67658071366C19E7066B6E761BD4FEE02BD3895A7ADA10CC4ADD6762
:402E40006FDFB9F9F9EFBE8E43BEB717D58EB060E8A3D6D67E93D1A1C4C2D83852F2DF4FF167BBD16757BCA6DD06B53F4B36B248DA2B0DD84C1B0AAFF64A0336607A044122
:402E8000C3EF60DF55DF67A8EF8E6E3179BE69468CB361CB1A8366BCA0D26F2536E2685295770CCC03470BBBB91602222F260555BE3BBAC5280BBDB2925AB42B046AB35CE2
:402EC000A7FFD7C231CFD0B58B9ED92C1DAEDE5BB0C2649B26F263EC9CA36A750A936D02A906099C3F360EEB8567077213570005824ABF95147AB8E2AE2BB17B381BB60CE2
:402F00009B8ED2920DBED5E5B7EFDC7C21DFDB0BD4D2D38642E2D4F1F8B3DD686E83DA1FCD16BE815B26B9F6E177B06F7747B718E65A0888706A0FFFCA3B06665C0B0111E1
:402F4000FF9E658F69AE62F8D3FF6B6145CF6C1678E20AA0EED20DD75483044EC2B30339612667A7F71660D04D476949DB776E3E4A6AD1AEDC5AD6D9660BDF40F03BD837A1
:402F800053AEBCA9C59EBBDE7FCFB247E9FFB5301CF2BDBD8AC2BACA3093B353A6A3B4240536D0BA9306D7CD2957DE54BF67D9232E7A66B3B84A61C4021B685D942B6F2A61
:402FC00037BE0BB4A18E0CC31BDF055A8DEF022D91040000930400009504000097040000990400009B0400009D0400004D040000510400005504000059040000A1040000DD
:4030000061050000C9040000F10400005D0400006D0400007D0400008104000085040000890400008D0400001905000031050000490500004504000050C3000000000640A5
:4030400000000740AD010008000000000000000000000000000000000000000000000000000000009690010800000000000000000000000000000000000000000000000024
:40308000AB024D03D3022D014B03B500AB005503CB0235012B01D5024B01B5025301AD02101010101010101310010405101506071012080902030A0B11140C0D0E0F001077
:4030C0001118181806061818061806180619191811061918190707070607180700300F40000180310F40000100330F40000100400F4000043201C0005202A0000100040288
:403100005201A000E0010200F2010000F2000002F20200000000E0023201C0000D01100001010802E200000303001C0020000200220040040100500004000F40251F1F1F2D
:40314000E2A0C044180000000000022C040404040000C849000040020000000000000000000000000000000000000000000000000000000006000005092800020028008238
:40318000200169000000044A3015822000000010008120100440000001008041001280100019404000008010000084028400011000040100004002200000420080800004F6
:4031C0000080000000004000001200000000000000010200000000000000002000000000440441040000000020100132000050A0000000800A000F406C300F400E310F40A8
:4032000032320F4059330F400A400F4004410F4005420F4004430F4002600F40200D2106221823183006310732063307811B83130102020204020730091F0A020C020D0484
:40324000100112021401180119061C011F08220223012401251F280129062C012D012F1E3403351F37203DA03E10400142504402450F460B4807491F4A1F4B1F4CE24DA077
:403280004EC04F445018580459045A045E405F496240630280028106847085028AC08C649070910194039507987C9C789D07A021A108A21CA468A504A87CA907AD04AE80C2
:4032C000B080B21FB420B640B70FB828B902BBC0BC08BD80BE51BF01C001C250C404C6B0C7F0C828C91FCA1FCB1FCCE2CDA0CEC0CF44D018D602D73BD804D904DA04DB04E0
:40330000DEC8DF49E240E30283408580C0FFC2FFC4FFCAFFCCDCCECFD09CD218D680D840DE81E401000201020204030C0404060208040A020E0111041201130216081701D3
:403340001A0126013001310632083501360637083A803C883D203E013F0140014250440246FB480C491F4A1F4B1F4CE24DA04EC04F44501852015610580459045A045B0422
:403380005E405F496240630200200240037104810504070409280A810B020D060F04108211101308162019A21A801C411D04231026012706280229102A052B202D3030108A
:4033C0003108328033013504370238043A403B623C01428245104602481049804D80504256A05C4061016B596E806F02713872017B027F02850187108C028E019004910A31
:40340000930494409752981099019A039DA29E049F08A080A112A280A528A641AC21AD04B440C0FFC27FC42FCA0FCCCFCE8FD039D218D610D801DE18EA485F0266806E80E3
:40344000720283028640D680DA80DC20E6C056809A80B602D4402F0275208120CA04DC025D209920AF02D6040101100100000000000000000001000000000000020306701C
:40348000F8B5C046F8BC08BC9E4670478503000025210000F8B5C046F8BC08BC9E4670475D030000B8340000C800002018000000080600000000000000000000FF00000059
:4034C0000000C05D80BB000030000000006CDC02000000000000000000000000000000000000000000000000000000000000000000000000000000000000000000000000FA
:40350000000000000000000000000000000000000000000000000000000000000000000000000000000000000000000000000000000000000000000000000000000000008B
:40354000000000000000000000000000000000000000000000000000000000000000000000000000000000000000000000000000000000000000000000000000000000004B
:40358000000000000000000000000000000000000000000000000000000000000000000000000000000000000000000000000000000000000000000000000000000000000B
:4035C00000000000000000000000000000000000000000000000000000000000000000000000000000000000000000000000000000000000000000000000000000000000CB
:0200000490303A
:02000000936DFE
:0200000490402A
:200000000000000000000000000000000000000000000000000000000000000000000000E0
:0200000490501A
:0C000000000204911193110104A2A5005C
:0200000490600A
:0100000001FE
:00000001FF